{
  "address": "0xF6DD52cdF1614Cd649077Aa283840657617faa07",
  "abi": [
    {
      "inputs": [
        {
          "internalType": "string",
          "name": "_name",
          "type": "string"
        },
        {
          "internalType": "string",
          "name": "_symbol",
          "type": "string"
        },
        {
          "internalType": "uint256",
          "name": "_flashFee",
          "type": "uint256"
        }
      ],
      "stateMutability": "nonpayable",
      "type": "constructor"
    },
    {
      "inputs": [],
      "name": "IllegalArgument",
      "type": "error"
    },
    {
      "inputs": [],
      "name": "IllegalState",
      "type": "error"
    },
    {
      "inputs": [],
      "name": "Unauthorized",
      "type": "error"
    },
    {
      "anonymous": false,
      "inputs": [
        {
          "indexed": true,
          "internalType": "address",
          "name": "owner",
          "type": "address"
        },
        {
          "indexed": true,
          "internalType": "address",
          "name": "spender",
          "type": "address"
        },
        {
          "indexed": false,
          "internalType": "uint256",
          "name": "value",
          "type": "uint256"
        }
      ],
      "name": "Approval",
      "type": "event"
    },
    {
      "anonymous": false,
      "inputs": [
        {
          "indexed": false,
          "internalType": "address",
          "name": "minter",
          "type": "address"
        },
        {
          "indexed": false,
          "internalType": "bool",
          "name": "state",
          "type": "bool"
        }
      ],
      "name": "Paused",
      "type": "event"
    },
    {
      "anonymous": false,
      "inputs": [
        {
          "indexed": true,
          "internalType": "bytes32",
          "name": "role",
          "type": "bytes32"
        },
        {
          "indexed": true,
          "internalType": "bytes32",
          "name": "previousAdminRole",
          "type": "bytes32"
        },
        {
          "indexed": true,
          "internalType": "bytes32",
          "name": "newAdminRole",
          "type": "bytes32"
        }
      ],
      "name": "RoleAdminChanged",
      "type": "event"
    },
    {
      "anonymous": false,
      "inputs": [
        {
          "indexed": true,
          "internalType": "bytes32",
          "name": "role",
          "type": "bytes32"
        },
        {
          "indexed": true,
          "internalType": "address",
          "name": "account",
          "type": "address"
        },
        {
          "indexed": true,
          "internalType": "address",
          "name": "sender",
          "type": "address"
        }
      ],
      "name": "RoleGranted",
      "type": "event"
    },
    {
      "anonymous": false,
      "inputs": [
        {
          "indexed": true,
          "internalType": "bytes32",
          "name": "role",
          "type": "bytes32"
        },
        {
          "indexed": true,
          "internalType": "address",
          "name": "account",
          "type": "address"
        },
        {
          "indexed": true,
          "internalType": "address",
          "name": "sender",
          "type": "address"
        }
      ],
      "name": "RoleRevoked",
      "type": "event"
    },
    {
      "anonymous": false,
      "inputs": [
        {
          "indexed": false,
          "internalType": "uint256",
          "name": "fee",
          "type": "uint256"
        }
      ],
      "name": "SetFlashMintFee",
      "type": "event"
    },
    {
      "anonymous": false,
      "inputs": [
        {
          "indexed": false,
          "internalType": "uint256",
          "name": "maxFlashLoan",
          "type": "uint256"
        }
      ],
      "name": "SetMaxFlashLoan",
      "type": "event"
    },
    {
      "anonymous": false,
      "inputs": [
        {
          "indexed": true,
          "internalType": "address",
          "name": "from",
          "type": "address"
        },
        {
          "indexed": true,
          "internalType": "address",
          "name": "to",
          "type": "address"
        },
        {
          "indexed": false,
          "internalType": "uint256",
          "name": "value",
          "type": "uint256"
        }
      ],
      "name": "Transfer",
      "type": "event"
    },
    {
      "inputs": [],
      "name": "ADMIN_ROLE",
      "outputs": [
        {
          "internalType": "bytes32",
          "name": "",
          "type": "bytes32"
        }
      ],
      "stateMutability": "view",
      "type": "function"
    },
    {
      "inputs": [],
      "name": "BPS",
      "outputs": [
        {
          "internalType": "uint256",
          "name": "",
          "type": "uint256"
        }
      ],
      "stateMutability": "view",
      "type": "function"
    },
    {
      "inputs": [],
      "name": "CALLBACK_SUCCESS",
      "outputs": [
        {
          "internalType": "bytes32",
          "name": "",
          "type": "bytes32"
        }
      ],
      "stateMutability": "view",
      "type": "function"
    },
    {
      "inputs": [],
      "name": "DEFAULT_ADMIN_ROLE",
      "outputs": [
        {
          "internalType": "bytes32",
          "name": "",
          "type": "bytes32"
        }
      ],
      "stateMutability": "view",
      "type": "function"
    },
    {
      "inputs": [],
      "name": "SENTINEL_ROLE",
      "outputs": [
        {
          "internalType": "bytes32",
          "name": "",
          "type": "bytes32"
        }
      ],
      "stateMutability": "view",
      "type": "function"
    },
    {
      "inputs": [
        {
          "internalType": "address",
          "name": "owner",
          "type": "address"
        },
        {
          "internalType": "address",
          "name": "spender",
          "type": "address"
        }
      ],
      "name": "allowance",
      "outputs": [
        {
          "internalType": "uint256",
          "name": "",
          "type": "uint256"
        }
      ],
      "stateMutability": "view",
      "type": "function"
    },
    {
      "inputs": [
        {
          "internalType": "address",
          "name": "spender",
          "type": "address"
        },
        {
          "internalType": "uint256",
          "name": "amount",
          "type": "uint256"
        }
      ],
      "name": "approve",
      "outputs": [
        {
          "internalType": "bool",
          "name": "",
          "type": "bool"
        }
      ],
      "stateMutability": "nonpayable",
      "type": "function"
    },
    {
      "inputs": [
        {
          "internalType": "address",
          "name": "account",
          "type": "address"
        }
      ],
      "name": "balanceOf",
      "outputs": [
        {
          "internalType": "uint256",
          "name": "",
          "type": "uint256"
        }
      ],
      "stateMutability": "view",
      "type": "function"
    },
    {
      "inputs": [
        {
          "internalType": "uint256",
          "name": "amount",
          "type": "uint256"
        }
      ],
      "name": "burn",
      "outputs": [],
      "stateMutability": "nonpayable",
      "type": "function"
    },
    {
      "inputs": [
        {
          "internalType": "address",
          "name": "account",
          "type": "address"
        },
        {
          "internalType": "uint256",
          "name": "amount",
          "type": "uint256"
        }
      ],
      "name": "burnFrom",
      "outputs": [],
      "stateMutability": "nonpayable",
      "type": "function"
    },
    {
      "inputs": [],
      "name": "decimals",
      "outputs": [
        {
          "internalType": "uint8",
          "name": "",
          "type": "uint8"
        }
      ],
      "stateMutability": "view",
      "type": "function"
    },
    {
      "inputs": [
        {
          "internalType": "address",
          "name": "spender",
          "type": "address"
        },
        {
          "internalType": "uint256",
          "name": "subtractedValue",
          "type": "uint256"
        }
      ],
      "name": "decreaseAllowance",
      "outputs": [
        {
          "internalType": "bool",
          "name": "",
          "type": "bool"
        }
      ],
      "stateMutability": "nonpayable",
      "type": "function"
    },
    {
      "inputs": [
        {
          "internalType": "address",
          "name": "token",
          "type": "address"
        },
        {
          "internalType": "uint256",
          "name": "amount",
          "type": "uint256"
        }
      ],
      "name": "flashFee",
      "outputs": [
        {
          "internalType": "uint256",
          "name": "",
          "type": "uint256"
        }
      ],
      "stateMutability": "view",
      "type": "function"
    },
    {
      "inputs": [
        {
          "internalType": "contract IERC3156FlashBorrower",
          "name": "receiver",
          "type": "address"
        },
        {
          "internalType": "address",
          "name": "token",
          "type": "address"
        },
        {
          "internalType": "uint256",
          "name": "amount",
          "type": "uint256"
        },
        {
          "internalType": "bytes",
          "name": "data",
          "type": "bytes"
        }
      ],
      "name": "flashLoan",
      "outputs": [
        {
          "internalType": "bool",
          "name": "",
          "type": "bool"
        }
      ],
      "stateMutability": "nonpayable",
      "type": "function"
    },
    {
      "inputs": [],
      "name": "flashMintFee",
      "outputs": [
        {
          "internalType": "uint256",
          "name": "",
          "type": "uint256"
        }
      ],
      "stateMutability": "view",
      "type": "function"
    },
    {
      "inputs": [
        {
          "internalType": "bytes32",
          "name": "role",
          "type": "bytes32"
        }
      ],
      "name": "getRoleAdmin",
      "outputs": [
        {
          "internalType": "bytes32",
          "name": "",
          "type": "bytes32"
        }
      ],
      "stateMutability": "view",
      "type": "function"
    },
    {
      "inputs": [
        {
          "internalType": "bytes32",
          "name": "role",
          "type": "bytes32"
        },
        {
          "internalType": "address",
          "name": "account",
          "type": "address"
        }
      ],
      "name": "grantRole",
      "outputs": [],
      "stateMutability": "nonpayable",
      "type": "function"
    },
    {
      "inputs": [
        {
          "internalType": "bytes32",
          "name": "role",
          "type": "bytes32"
        },
        {
          "internalType": "address",
          "name": "account",
          "type": "address"
        }
      ],
      "name": "hasRole",
      "outputs": [
        {
          "internalType": "bool",
          "name": "",
          "type": "bool"
        }
      ],
      "stateMutability": "view",
      "type": "function"
    },
    {
      "inputs": [
        {
          "internalType": "address",
          "name": "spender",
          "type": "address"
        },
        {
          "internalType": "uint256",
          "name": "addedValue",
          "type": "uint256"
        }
      ],
      "name": "increaseAllowance",
      "outputs": [
        {
          "internalType": "bool",
          "name": "",
          "type": "bool"
        }
      ],
      "stateMutability": "nonpayable",
      "type": "function"
    },
    {
      "inputs": [
        {
          "internalType": "address",
          "name": "token",
          "type": "address"
        }
      ],
      "name": "maxFlashLoan",
      "outputs": [
        {
          "internalType": "uint256",
          "name": "",
          "type": "uint256"
        }
      ],
      "stateMutability": "view",
      "type": "function"
    },
    {
      "inputs": [],
      "name": "maxFlashLoanAmount",
      "outputs": [
        {
          "internalType": "uint256",
          "name": "",
          "type": "uint256"
        }
      ],
      "stateMutability": "view",
      "type": "function"
    },
    {
      "inputs": [
        {
          "internalType": "address",
          "name": "recipient",
          "type": "address"
        },
        {
          "internalType": "uint256",
          "name": "amount",
          "type": "uint256"
        }
      ],
      "name": "mint",
      "outputs": [],
      "stateMutability": "nonpayable",
      "type": "function"
    },
    {
      "inputs": [],
      "name": "name",
      "outputs": [
        {
          "internalType": "string",
          "name": "",
          "type": "string"
        }
      ],
      "stateMutability": "view",
      "type": "function"
    },
    {
      "inputs": [
        {
          "internalType": "address",
          "name": "minter",
          "type": "address"
        },
        {
          "internalType": "bool",
          "name": "state",
          "type": "bool"
        }
      ],
      "name": "pauseMinter",
      "outputs": [],
      "stateMutability": "nonpayable",
      "type": "function"
    },
    {
      "inputs": [
        {
          "internalType": "address",
          "name": "",
          "type": "address"
        }
      ],
      "name": "paused",
      "outputs": [
        {
          "internalType": "bool",
          "name": "",
          "type": "bool"
        }
      ],
      "stateMutability": "view",
      "type": "function"
    },
    {
      "inputs": [
        {
          "internalType": "bytes32",
          "name": "role",
          "type": "bytes32"
        },
        {
          "internalType": "address",
          "name": "account",
          "type": "address"
        }
      ],
      "name": "renounceRole",
      "outputs": [],
      "stateMutability": "nonpayable",
      "type": "function"
    },
    {
      "inputs": [
        {
          "internalType": "bytes32",
          "name": "role",
          "type": "bytes32"
        },
        {
          "internalType": "address",
          "name": "account",
          "type": "address"
        }
      ],
      "name": "revokeRole",
      "outputs": [],
      "stateMutability": "nonpayable",
      "type": "function"
    },
    {
      "inputs": [
        {
          "internalType": "uint256",
          "name": "newFee",
          "type": "uint256"
        }
      ],
      "name": "setFlashFee",
      "outputs": [],
      "stateMutability": "nonpayable",
      "type": "function"
    },
    {
      "inputs": [
        {
          "internalType": "uint256",
          "name": "_maxFlashLoanAmount",
          "type": "uint256"
        }
      ],
      "name": "setMaxFlashLoan",
      "outputs": [],
      "stateMutability": "nonpayable",
      "type": "function"
    },
    {
      "inputs": [
        {
          "internalType": "address",
          "name": "sentinel",
          "type": "address"
        }
      ],
      "name": "setSentinel",
      "outputs": [],
      "stateMutability": "nonpayable",
      "type": "function"
    },
    {
      "inputs": [
        {
          "internalType": "address",
          "name": "minter",
          "type": "address"
        },
        {
          "internalType": "bool",
          "name": "state",
          "type": "bool"
        }
      ],
      "name": "setWhitelist",
      "outputs": [],
      "stateMutability": "nonpayable",
      "type": "function"
    },
    {
      "inputs": [
        {
          "internalType": "bytes4",
          "name": "interfaceId",
          "type": "bytes4"
        }
      ],
      "name": "supportsInterface",
      "outputs": [
        {
          "internalType": "bool",
          "name": "",
          "type": "bool"
        }
      ],
      "stateMutability": "view",
      "type": "function"
    },
    {
      "inputs": [],
      "name": "symbol",
      "outputs": [
        {
          "internalType": "string",
          "name": "",
          "type": "string"
        }
      ],
      "stateMutability": "view",
      "type": "function"
    },
    {
      "inputs": [],
      "name": "totalSupply",
      "outputs": [
        {
          "internalType": "uint256",
          "name": "",
          "type": "uint256"
        }
      ],
      "stateMutability": "view",
      "type": "function"
    },
    {
      "inputs": [
        {
          "internalType": "address",
          "name": "to",
          "type": "address"
        },
        {
          "internalType": "uint256",
          "name": "amount",
          "type": "uint256"
        }
      ],
      "name": "transfer",
      "outputs": [
        {
          "internalType": "bool",
          "name": "",
          "type": "bool"
        }
      ],
      "stateMutability": "nonpayable",
      "type": "function"
    },
    {
      "inputs": [
        {
          "internalType": "address",
          "name": "from",
          "type": "address"
        },
        {
          "internalType": "address",
          "name": "to",
          "type": "address"
        },
        {
          "internalType": "uint256",
          "name": "amount",
          "type": "uint256"
        }
      ],
      "name": "transferFrom",
      "outputs": [
        {
          "internalType": "bool",
          "name": "",
          "type": "bool"
        }
      ],
      "stateMutability": "nonpayable",
      "type": "function"
    },
    {
      "inputs": [
        {
          "internalType": "address",
          "name": "",
          "type": "address"
        }
      ],
      "name": "whitelisted",
      "outputs": [
        {
          "internalType": "bool",
          "name": "",
          "type": "bool"
        }
      ],
      "stateMutability": "view",
      "type": "function"
    }
  ],
  "transactionHash": "0x2db16bf31e06997854379e002724e11b4f1f417688d9383914c13921d78804ce",
  "args": [
    "Alchemix ETH",
    "alETH",
    0
  ],
  "solcInputHash": "774286860270f1f1a902cd3c83d15184",
  "bytecode": "0x60806040523480156200001157600080fd5b5060405162001ed138038062001ed183398101604081905262000034916200039a565b600180558251839083906200005190600590602085019062000227565b5080516200006790600690602084019062000227565b5050506200008b60008051602062001e91833981519152336200012c60201b60201c565b620000a660008051602062001eb1833981519152336200012c565b620000d060008051602062001eb183398151915260008051602062001e918339815191526200013c565b620000eb60008051602062001e91833981519152806200013c565b60098190556040518181527f2a870645d0d1cf8866b52d71ff02db01b3e1dc4b70f53e2c4e85dbe60969b92e9060200160405180910390a150505062000449565b62000138828262000187565b5050565b600082815260208190526040808220600101805490849055905190918391839186917fbd79b86ffe0ab8e8776151514217cd7cacd52c909f66475c3af44e129f0b00ff9190a4505050565b6000828152602081815260408083206001600160a01b038516845290915290205460ff1662000138576000828152602081815260408083206001600160a01b03851684529091529020805460ff19166001179055620001e33390565b6001600160a01b0316816001600160a01b0316837f2f8788117e7eff1d82e926ec794901d17c78024a50270940304540a733656f0d60405160405180910390a45050565b82805462000235906200040d565b90600052602060002090601f016020900481019282620002595760008555620002a4565b82601f106200027457805160ff1916838001178555620002a4565b82800160010185558215620002a4579182015b82811115620002a457825182559160200191906001019062000287565b50620002b2929150620002b6565b5090565b5b80821115620002b25760008155600101620002b7565b634e487b7160e01b600052604160045260246000fd5b600082601f830112620002f557600080fd5b81516001600160401b0380821115620003125762000312620002cd565b604051601f8301601f19908116603f011681019082821181831017156200033d576200033d620002cd565b816040528381526020925086838588010111156200035a57600080fd5b600091505b838210156200037e57858201830151818301840152908201906200035f565b83821115620003905760008385830101525b9695505050505050565b600080600060608486031215620003b057600080fd5b83516001600160401b0380821115620003c857600080fd5b620003d687838801620002e3565b94506020860151915080821115620003ed57600080fd5b50620003fc86828701620002e3565b925050604084015190509250925092565b600181811c908216806200042257607f821691505b6020821081036200044357634e487b7160e01b600052602260045260246000fd5b50919050565b611a3880620004596000396000f3fe608060405234801561001057600080fd5b50600436106102275760003560e01c8063613255ab11610130578063a140edb4116100b8578063d547741f1161007c578063d547741f146104d0578063d936547e146104e3578063d9d98ce414610506578063dd62ed3e14610519578063e68b14ff1461052c57600080fd5b8063a140edb414610486578063a217fddf1461048f578063a457c2d714610497578063a6beee4a146104aa578063a9059cbb146104bd57600080fd5b80638237e538116100ff5780638237e53814610428578063907a267b1461044f57806391d1485414610462578063940a1dc01461047557806395d89b411461047e57600080fd5b8063613255ab146103c457806370a08231146103d757806375b238fc1461040057806379cc67901461041557600080fd5b80632e48152c116101b35780633950935111610182578063395093511461036557806340c10f191461037857806342966c681461038b57806353d6fd591461039e5780635cffe9de146103b157600080fd5b80632e48152c1461030d5780632f2ff15d14610330578063313ce5671461034357806336568abe1461035257600080fd5b806313430d92116101fa57806313430d921461029157806318160ddd146102c657806323b872dd146102ce578063248a9ca3146102e1578063249d39e91461030457600080fd5b806301ffc9a71461022c57806306fdde0314610254578063095ea7b31461026957806309dac0611461027c575b600080fd5b61023f61023a366004611584565b61053f565b60405190151581526020015b60405180910390f35b61025c610576565b60405161024b91906115da565b61023f610277366004611622565b610608565b61028f61028a36600461164e565b610620565b005b6102b87fd3eedd6d69d410e954f4c622838ecc3acae9fdcd83cad412075c85b09277065681565b60405190815260200161024b565b6004546102b8565b61023f6102dc36600461166b565b610681565b6102b86102ef3660046116ac565b60009081526020819052604090206001015490565b6102b861271081565b61023f61031b36600461164e565b60086020526000908152604090205460ff1681565b61028f61033e3660046116c5565b6106a5565b6040516012815260200161024b565b61028f6103603660046116c5565b6106cf565b61023f610373366004611622565b610752565b61028f610386366004611622565b610774565b61028f6103993660046116ac565b6107de565b61028f6103ac3660046116f5565b6107e8565b61023f6103bf366004611728565b610847565b6102b86103d236600461164e565b610997565b6102b86103e536600461164e565b6001600160a01b031660009081526002602052604090205490565b6102b86000805160206119e383398151915281565b61028f610423366004611622565b6109b9565b6102b87f439148f0bbc682ca079e46d6e2c2f0c1e3b820f1a291b069d8882abf8cf18dd981565b61028f61045d3660046116ac565b6109e7565b61023f6104703660046116c5565b610a79565b6102b860095481565b61025c610aa2565b6102b8600a5481565b6102b8600081565b61023f6104a5366004611622565b610ab1565b61028f6104b83660046116ac565b610b2c565b61023f6104cb366004611622565b610b95565b61028f6104de3660046116c5565b610ba3565b61023f6104f136600461164e565b60076020526000908152604090205460ff1681565b6102b8610514366004611622565b610bc8565b6102b86105273660046117c7565b610c15565b61028f61053a3660046116f5565b610c40565b60006001600160e01b03198216637965db0b60e01b148061057057506301ffc9a760e01b6001600160e01b03198316145b92915050565b606060058054610585906117f5565b80601f01602080910402602001604051908101604052809291908181526020018280546105b1906117f5565b80156105fe5780601f106105d3576101008083540402835291602001916105fe565b820191906000526020600020905b8154815290600101906020018083116105e157829003601f168201915b5050505050905090565b600033610616818585610ce9565b5060019392505050565b6106386000805160206119e383398151915233610a79565b610654576040516282b42960e81b815260040160405180910390fd5b61067e7fd3eedd6d69d410e954f4c622838ecc3acae9fdcd83cad412075c85b09277065682610e0d565b50565b60003361068f858285610e17565b61069a858585610e91565b506001949350505050565b6000828152602081905260409020600101546106c08161103c565b6106ca8383611046565b505050565b6001600160a01b03811633146107445760405162461bcd60e51b815260206004820152602f60248201527f416363657373436f6e74726f6c3a2063616e206f6e6c792072656e6f756e636560448201526e103937b632b9903337b91039b2b63360891b60648201526084015b60405180910390fd5b61074e82826110ca565b5050565b6000336106168185856107658383610c15565b61076f9190611845565b610ce9565b3360009081526007602052604090205460ff166107a3576040516282b42960e81b815260040160405180910390fd5b3360009081526008602052604090205460ff16156107d457604051634a613c4160e01b815260040160405180910390fd5b61074e828261112f565b61067e33826111f0565b6108006000805160206119e383398151915233610a79565b61081c576040516282b42960e81b815260040160405180910390fd5b6001600160a01b03919091166000908152600760205260409020805460ff1916911515919091179055565b6000610851611324565b6001600160a01b038516301461087a57604051630134249960e71b815260040160405180910390fd5b61088385610997565b8411156108a357604051630134249960e71b815260040160405180910390fd5b60006108af8686610bc8565b90506108bb878661112f565b6040516323e30c8b60e01b81527f439148f0bbc682ca079e46d6e2c2f0c1e3b820f1a291b069d8882abf8cf18dd9906001600160a01b038916906323e30c8b906109139033908b908b9088908c908c9060040161185d565b6020604051808303816000875af1158015610932573d6000803e3d6000fd5b505050506040513d601f19601f8201168201806040525081019061095691906118b9565b1461097457604051634a613c4160e01b815260040160405180910390fd5b610987876109828388611845565b6111f0565b5050600180805595945050505050565b60006001600160a01b03821630146109b157506000919050565b5050600a5490565b6000816109c68433610c15565b6109d091906118d2565b90506109dd833383610ce9565b6106ca83836111f0565b6109ff6000805160206119e383398151915233610a79565b610a1b576040516282b42960e81b815260040160405180910390fd5b6127108110610a3d57604051630134249960e71b815260040160405180910390fd5b60098190556040518181527f2a870645d0d1cf8866b52d71ff02db01b3e1dc4b70f53e2c4e85dbe60969b92e906020015b60405180910390a150565b6000918252602082815260408084206001600160a01b0393909316845291905290205460ff1690565b606060068054610585906117f5565b60003381610abf8286610c15565b905083811015610b1f5760405162461bcd60e51b815260206004820152602560248201527f45524332303a2064656372656173656420616c6c6f77616e63652062656c6f77604482015264207a65726f60d81b606482015260840161073b565b61069a8286868403610ce9565b610b446000805160206119e383398151915233610a79565b610b60576040516282b42960e81b815260040160405180910390fd5b600a8190556040518181527f6fa7ecc5c15a4eee2e87300bfa6827c73f06de5b70edf09ba1d1f7640539efe190602001610a6e565b600033610616818585610e91565b600082815260208190526040902060010154610bbe8161103c565b6106ca83836110ca565b60006001600160a01b0383163014610bf357604051630134249960e71b815260040160405180910390fd5b61271060095483610c0491906118e9565b610c0e9190611908565b9392505050565b6001600160a01b03918216600090815260036020908152604080832093909416825291909152205490565b610c6a7fd3eedd6d69d410e954f4c622838ecc3acae9fdcd83cad412075c85b09277065633610a79565b610c86576040516282b42960e81b815260040160405180910390fd5b6001600160a01b038216600081815260086020908152604091829020805460ff19168515159081179091558251938452908301527fe8699cf681560fd07de85543bd994263f4557bdc5179dd702f256d15fd083e1d910160405180910390a15050565b6001600160a01b038316610d4b5760405162461bcd60e51b8152602060048201526024808201527f45524332303a20617070726f76652066726f6d20746865207a65726f206164646044820152637265737360e01b606482015260840161073b565b6001600160a01b038216610dac5760405162461bcd60e51b815260206004820152602260248201527f45524332303a20617070726f766520746f20746865207a65726f206164647265604482015261737360f01b606482015260840161073b565b6001600160a01b0383811660008181526003602090815260408083209487168084529482529182902085905590518481527f8c5be1e5ebec7d5bd14f71427d1e84f3dd0314c0f7b2291e5b200ac8c7c3b925910160405180910390a3505050565b61074e8282611046565b6000610e238484610c15565b90506000198114610e8b5781811015610e7e5760405162461bcd60e51b815260206004820152601d60248201527f45524332303a20696e73756666696369656e7420616c6c6f77616e6365000000604482015260640161073b565b610e8b8484848403610ce9565b50505050565b6001600160a01b038316610ef55760405162461bcd60e51b815260206004820152602560248201527f45524332303a207472616e736665722066726f6d20746865207a65726f206164604482015264647265737360d81b606482015260840161073b565b6001600160a01b038216610f575760405162461bcd60e51b815260206004820152602360248201527f45524332303a207472616e7366657220746f20746865207a65726f206164647260448201526265737360e81b606482015260840161073b565b6001600160a01b03831660009081526002602052604090205481811015610fcf5760405162461bcd60e51b815260206004820152602660248201527f45524332303a207472616e7366657220616d6f756e7420657863656564732062604482015265616c616e636560d01b606482015260840161073b565b6001600160a01b0380851660008181526002602052604080822086860390559286168082529083902080548601905591517fddf252ad1be2c89b69c2b068fc378daa952ba7f163c4a11628f55a4df523b3ef9061102f9086815260200190565b60405180910390a3610e8b565b61067e813361137d565b6110508282610a79565b61074e576000828152602081815260408083206001600160a01b03851684529091529020805460ff191660011790556110863390565b6001600160a01b0316816001600160a01b0316837f2f8788117e7eff1d82e926ec794901d17c78024a50270940304540a733656f0d60405160405180910390a45050565b6110d48282610a79565b1561074e576000828152602081815260408083206001600160a01b0385168085529252808320805460ff1916905551339285917ff6391f5c32d9c69d2a47ea670b442974b53935d1edc7fd64eb21e047a839171b9190a45050565b6001600160a01b0382166111855760405162461bcd60e51b815260206004820152601f60248201527f45524332303a206d696e7420746f20746865207a65726f206164647265737300604482015260640161073b565b80600460008282546111979190611845565b90915550506001600160a01b0382166000818152600260209081526040808320805486019055518481527fddf252ad1be2c89b69c2b068fc378daa952ba7f163c4a11628f55a4df523b3ef910160405180910390a35050565b6001600160a01b0382166112505760405162461bcd60e51b815260206004820152602160248201527f45524332303a206275726e2066726f6d20746865207a65726f206164647265736044820152607360f81b606482015260840161073b565b6001600160a01b038216600090815260026020526040902054818110156112c45760405162461bcd60e51b815260206004820152602260248201527f45524332303a206275726e20616d6f756e7420657863656564732062616c616e604482015261636560f01b606482015260840161073b565b6001600160a01b03831660008181526002602090815260408083208686039055600480548790039055518581529192917fddf252ad1be2c89b69c2b068fc378daa952ba7f163c4a11628f55a4df523b3ef910160405180910390a3505050565b6002600154036113765760405162461bcd60e51b815260206004820152601f60248201527f5265656e7472616e637947756172643a207265656e7472616e742063616c6c00604482015260640161073b565b6002600155565b6113878282610a79565b61074e57611394816113d6565b61139f8360206113e8565b6040516020016113b092919061192a565b60408051601f198184030181529082905262461bcd60e51b825261073b916004016115da565b60606105706001600160a01b03831660145b606060006113f78360026118e9565b611402906002611845565b67ffffffffffffffff81111561141a5761141a61199f565b6040519080825280601f01601f191660200182016040528015611444576020820181803683370190505b509050600360fc1b8160008151811061145f5761145f6119b5565b60200101906001600160f81b031916908160001a905350600f60fb1b8160018151811061148e5761148e6119b5565b60200101906001600160f81b031916908160001a90535060006114b28460026118e9565b6114bd906001611845565b90505b6001811115611535576f181899199a1a9b1b9c1cb0b131b232b360811b85600f16601081106114f1576114f16119b5565b1a60f81b828281518110611507576115076119b5565b60200101906001600160f81b031916908160001a90535060049490941c9361152e816119cb565b90506114c0565b508315610c0e5760405162461bcd60e51b815260206004820181905260248201527f537472696e67733a20686578206c656e67746820696e73756666696369656e74604482015260640161073b565b60006020828403121561159657600080fd5b81356001600160e01b031981168114610c0e57600080fd5b60005b838110156115c95781810151838201526020016115b1565b83811115610e8b5750506000910152565b60208152600082518060208401526115f98160408501602087016115ae565b601f01601f19169190910160400192915050565b6001600160a01b038116811461067e57600080fd5b6000806040838503121561163557600080fd5b82356116408161160d565b946020939093013593505050565b60006020828403121561166057600080fd5b8135610c0e8161160d565b60008060006060848603121561168057600080fd5b833561168b8161160d565b9250602084013561169b8161160d565b929592945050506040919091013590565b6000602082840312156116be57600080fd5b5035919050565b600080604083850312156116d857600080fd5b8235915060208301356116ea8161160d565b809150509250929050565b6000806040838503121561170857600080fd5b82356117138161160d565b9150602083013580151581146116ea57600080fd5b60008060008060006080868803121561174057600080fd5b853561174b8161160d565b9450602086013561175b8161160d565b935060408601359250606086013567ffffffffffffffff8082111561177f57600080fd5b818801915088601f83011261179357600080fd5b8135818111156117a257600080fd5b8960208285010111156117b457600080fd5b9699959850939650602001949392505050565b600080604083850312156117da57600080fd5b82356117e58161160d565b915060208301356116ea8161160d565b600181811c9082168061180957607f821691505b60208210810361182957634e487b7160e01b600052602260045260246000fd5b50919050565b634e487b7160e01b600052601160045260246000fd5b600082198211156118585761185861182f565b500190565b6001600160a01b03878116825286166020820152604081018590526060810184905260a06080820181905281018290526000828460c0840137600060c0848401015260c0601f19601f8501168301019050979650505050505050565b6000602082840312156118cb57600080fd5b5051919050565b6000828210156118e4576118e461182f565b500390565b60008160001904831182151516156119035761190361182f565b500290565b60008261192557634e487b7160e01b600052601260045260246000fd5b500490565b7f416363657373436f6e74726f6c3a206163636f756e74200000000000000000008152600083516119628160178501602088016115ae565b7001034b99036b4b9b9b4b733903937b6329607d1b60179184019182015283516119938160288401602088016115ae565b01602801949350505050565b634e487b7160e01b600052604160045260246000fd5b634e487b7160e01b600052603260045260246000fd5b6000816119da576119da61182f565b50600019019056fedf8b4c520ffe197c5343c6f5aec59570151ef9a492f2c624fd45ddde6135ec42a26469706673582212206397848badac694bf44b0f040d9eab21c30417111f340ec1e06b4922c8cb12c064736f6c634300080d0033df8b4c520ffe197c5343c6f5aec59570151ef9a492f2c624fd45ddde6135ec42d3eedd6d69d410e954f4c622838ecc3acae9fdcd83cad412075c85b092770656",
  "devdoc": {
    "author": "Alchemix Finance",
    "events": {
      "Paused(address,bool)": {
        "params": {
          "minter": "The address of the minter which was paused.",
          "state": "A flag indicating if the alchemist is paused or unpaused."
        }
      },
      "SetFlashMintFee(uint256)": {
        "params": {
          "fee": "The new flash mint fee."
        }
      },
      "SetMaxFlashLoan(uint256)": {
        "params": {
          "maxFlashLoan": "The new max flash loan."
        }
      }
    },
    "kind": "dev",
    "methods": {
      "allowance(address,address)": {
        "details": "See {IERC20-allowance}."
      },
      "approve(address,uint256)": {
        "details": "See {IERC20-approve}. NOTE: If `amount` is the maximum `uint256`, the allowance is not updated on `transferFrom`. This is semantically equivalent to an infinite approval. Requirements: - `spender` cannot be the zero address."
      },
      "balanceOf(address)": {
        "details": "See {IERC20-balanceOf}."
      },
      "burn(uint256)": {
        "params": {
          "amount": "The amount of tokens to be burned."
        }
      },
      "burnFrom(address,uint256)": {
        "details": "Destroys `amount` tokens from `account`, deducting from the caller's allowance.",
        "params": {
          "account": "The address the burn tokens from.",
          "amount": "The amount of tokens to burn."
        }
      },
      "decimals()": {
        "details": "Returns the number of decimals used to get its user representation. For example, if `decimals` equals `2`, a balance of `505` tokens should be displayed to a user as `5.05` (`505 / 10 ** 2`). Tokens usually opt for a value of 18, imitating the relationship between Ether and Wei. This is the default value returned by this function, unless it's overridden. NOTE: This information is only used for _display_ purposes: it in no way affects any of the arithmetic of the contract, including {IERC20-balanceOf} and {IERC20-transfer}."
      },
      "decreaseAllowance(address,uint256)": {
        "details": "Atomically decreases the allowance granted to `spender` by the caller. This is an alternative to {approve} that can be used as a mitigation for problems described in {IERC20-approve}. Emits an {Approval} event indicating the updated allowance. Requirements: - `spender` cannot be the zero address. - `spender` must have allowance for the caller of at least `subtractedValue`."
      },
      "flashFee(address,uint256)": {
        "params": {
          "amount": "The amount of `token` to flash mint.",
          "token": "The address of the token.`"
        },
        "returns": {
          "_0": "The flash loan fee."
        }
      },
      "flashLoan(address,address,uint256,bytes)": {
        "params": {
          "amount": "How much to flash mint.",
          "data": "ABI encoded data to pass to the receiver.",
          "receiver": "The address which will receive the flash minted tokens.",
          "token": "The address of the token to flash mint."
        },
        "returns": {
          "_0": "If the flash loan was successful."
        }
      },
      "getRoleAdmin(bytes32)": {
        "details": "Returns the admin role that controls `role`. See {grantRole} and {revokeRole}. To change a role's admin, use {_setRoleAdmin}."
      },
      "grantRole(bytes32,address)": {
        "details": "Grants `role` to `account`. If `account` had not been already granted `role`, emits a {RoleGranted} event. Requirements: - the caller must have ``role``'s admin role. May emit a {RoleGranted} event."
      },
      "hasRole(bytes32,address)": {
        "details": "Returns `true` if `account` has been granted `role`."
      },
      "increaseAllowance(address,uint256)": {
        "details": "Atomically increases the allowance granted to `spender` by the caller. This is an alternative to {approve} that can be used as a mitigation for problems described in {IERC20-approve}. Emits an {Approval} event indicating the updated allowance. Requirements: - `spender` cannot be the zero address."
      },
      "maxFlashLoan(address)": {
        "params": {
          "token": "The address of the token."
        },
        "returns": {
          "_0": "The maximum amount of `token` that can be flashed loaned."
        }
      },
      "mint(address,uint256)": {
        "params": {
          "amount": "The amount of tokens to mint.",
          "recipient": "The address to mint the tokens to."
        }
      },
      "name()": {
        "details": "Returns the name of the token."
      },
      "pauseMinter(address,bool)": {
        "params": {
          "minter": "The address to set as paused or unpaused.",
          "state": "A flag indicating if the minter should be paused or unpaused."
        }
      },
      "renounceRole(bytes32,address)": {
        "details": "Revokes `role` from the calling account. Roles are often managed via {grantRole} and {revokeRole}: this function's purpose is to provide a mechanism for accounts to lose their privileges if they are compromised (such as when a trusted device is misplaced). If the calling account had been revoked `role`, emits a {RoleRevoked} event. Requirements: - the caller must be `account`. May emit a {RoleRevoked} event."
      },
      "revokeRole(bytes32,address)": {
        "details": "Revokes `role` from `account`. If `account` had been granted `role`, emits a {RoleRevoked} event. Requirements: - the caller must have ``role``'s admin role. May emit a {RoleRevoked} event."
      },
      "setFlashFee(uint256)": {
        "params": {
          "newFee": "The new flash mint fee."
        }
      },
      "setMaxFlashLoan(uint256)": {
        "params": {
          "_maxFlashLoanAmount": "The maximum flashloan amount."
        }
      },
      "setSentinel(address)": {
        "params": {
          "sentinel": "The address to set as a sentinel."
        }
      },
      "setWhitelist(address,bool)": {
        "params": {
          "minter": "The account to permit to mint.",
          "state": "A flag indicating if the minter should be able to mint."
        }
      },
      "supportsInterface(bytes4)": {
        "details": "See {IERC165-supportsInterface}."
      },
      "symbol()": {
        "details": "Returns the symbol of the token, usually a shorter version of the name."
      },
      "totalSupply()": {
        "details": "See {IERC20-totalSupply}."
      },
      "transfer(address,uint256)": {
        "details": "See {IERC20-transfer}. Requirements: - `to` cannot be the zero address. - the caller must have a balance of at least `amount`."
      },
      "transferFrom(address,address,uint256)": {
        "details": "See {IERC20-transferFrom}. Emits an {Approval} event indicating the updated allowance. This is not required by the EIP. See the note at the beginning of {ERC20}. NOTE: Does not update the allowance if the current allowance is the maximum `uint256`. Requirements: - `from` and `to` cannot be the zero address. - `from` must have a balance of at least `amount`. - the caller must have allowance for ``from``'s tokens of at least `amount`."
      }
    },
    "title": "AlchemicTokenV2",
    "version": 1
  },
  "userdoc": {
    "errors": {
      "IllegalArgument()": [
        {
          "notice": "An error used to indicate that an action could not be completed because of an illegal argument was passed         to the function."
        }
      ],
      "IllegalState()": [
        {
          "notice": "An error used to indicate that an action could not be completed because the contract either already existed         or entered an illegal condition which is not recoverable from."
        }
      ],
      "Unauthorized()": [
        {
          "notice": "An error used to indicate that an action could not be completed because either the `msg.sender` or         `msg.origin` is not authorized."
        }
      ]
    },
    "events": {
      "Paused(address,bool)": {
        "notice": "An event which is emitted when a minter is paused from minting."
      },
      "SetFlashMintFee(uint256)": {
        "notice": "An event which is emitted when the flash mint fee is updated."
      },
      "SetMaxFlashLoan(uint256)": {
        "notice": "An event which is emitted when the max flash loan is updated."
      }
    },
    "kind": "user",
    "methods": {
      "ADMIN_ROLE()": {
        "notice": "The identifier of the role which maintains other roles."
      },
      "BPS()": {
        "notice": "The maximum number of basis points needed to represent 100%."
      },
      "CALLBACK_SUCCESS()": {
        "notice": "The expected return value from a flash mint receiver"
      },
      "SENTINEL_ROLE()": {
        "notice": "The identifier of the role which allows accounts to mint tokens."
      },
      "burn(uint256)": {
        "notice": "Burns `amount` tokens from `msg.sender`."
      },
      "flashFee(address,uint256)": {
        "notice": "Gets the flash loan fee of `amount` of `token`."
      },
      "flashLoan(address,address,uint256,bytes)": {
        "notice": "Performs a flash mint (called flash loan to confirm with ERC3156 standard)."
      },
      "flashMintFee()": {
        "notice": "Fee for flash minting"
      },
      "maxFlashLoan(address)": {
        "notice": "Gets the maximum amount to be flash loaned of a token."
      },
      "maxFlashLoanAmount()": {
        "notice": "Max flash mint amount"
      },
      "mint(address,uint256)": {
        "notice": "Mints tokens to `a recipient.`This function reverts if `msg.sender` is not whitelisted.This function reverts if `msg.sender` is paused."
      },
      "pauseMinter(address,bool)": {
        "notice": "Pauses `minter` from minting tokens.This function reverts if `msg.sender` is not a sentinel."
      },
      "paused(address)": {
        "notice": "A set of addresses which are paused from minting new tokens."
      },
      "setFlashFee(uint256)": {
        "notice": "Sets the flash minting fee.This function reverts if `msg.sender` is not an admin."
      },
      "setMaxFlashLoan(uint256)": {
        "notice": "Adjusts the maximum flashloan amount."
      },
      "setSentinel(address)": {
        "notice": "Sets `sentinel` as a sentinel.This function reverts if `msg.sender` is not an admin."
      },
      "setWhitelist(address,bool)": {
        "notice": "Sets `minter` as whitelisted to mint.This function reverts if `msg.sender` is not an admin."
      },
      "whitelisted(address)": {
        "notice": "A set of addresses which are whitelisted for minting new tokens."
      }
    },
    "notice": "This is the contract for version two alchemic tokens.",
    "version": 1
  },
  "storageLayout": {
    "storage": [
      {
        "astId": 33674,
        "contract": "submodules/v2-foundry/src/AlchemicTokenV2.sol:AlchemicTokenV2",
        "label": "_roles",
        "offset": 0,
        "slot": "0",
        "type": "t_mapping(t_bytes32,t_struct(RoleData)33669_storage)"
      },
      {
        "astId": 34980,
        "contract": "submodules/v2-foundry/src/AlchemicTokenV2.sol:AlchemicTokenV2",
        "label": "_status",
        "offset": 0,
        "slot": "1",
        "type": "t_uint256"
      },
      {
        "astId": 35050,
        "contract": "submodules/v2-foundry/src/AlchemicTokenV2.sol:AlchemicTokenV2",
        "label": "_balances",
        "offset": 0,
        "slot": "2",
        "type": "t_mapping(t_address,t_uint256)"
      },
      {
        "astId": 35056,
        "contract": "submodules/v2-foundry/src/AlchemicTokenV2.sol:AlchemicTokenV2",
        "label": "_allowances",
        "offset": 0,
        "slot": "3",
        "type": "t_mapping(t_address,t_mapping(t_address,t_uint256))"
      },
      {
        "astId": 35058,
        "contract": "submodules/v2-foundry/src/AlchemicTokenV2.sol:AlchemicTokenV2",
        "label": "_totalSupply",
        "offset": 0,
        "slot": "4",
        "type": "t_uint256"
      },
      {
        "astId": 35060,
        "contract": "submodules/v2-foundry/src/AlchemicTokenV2.sol:AlchemicTokenV2",
        "label": "_name",
        "offset": 0,
        "slot": "5",
        "type": "t_string_storage"
      },
      {
        "astId": 35062,
        "contract": "submodules/v2-foundry/src/AlchemicTokenV2.sol:AlchemicTokenV2",
        "label": "_symbol",
        "offset": 0,
        "slot": "6",
        "type": "t_string_storage"
      },
      {
        "astId": 39093,
        "contract": "submodules/v2-foundry/src/AlchemicTokenV2.sol:AlchemicTokenV2",
        "label": "whitelisted",
        "offset": 0,
        "slot": "7",
        "type": "t_mapping(t_address,t_bool)"
      },
      {
        "astId": 39098,
        "contract": "submodules/v2-foundry/src/AlchemicTokenV2.sol:AlchemicTokenV2",
        "label": "paused",
        "offset": 0,
        "slot": "8",
        "type": "t_mapping(t_address,t_bool)"
      },
      {
        "astId": 39101,
        "contract": "submodules/v2-foundry/src/AlchemicTokenV2.sol:AlchemicTokenV2",
        "label": "flashMintFee",
        "offset": 0,
        "slot": "9",
        "type": "t_uint256"
      },
      {
        "astId": 39104,
        "contract": "submodules/v2-foundry/src/AlchemicTokenV2.sol:AlchemicTokenV2",
        "label": "maxFlashLoanAmount",
        "offset": 0,
        "slot": "10",
        "type": "t_uint256"
      }
    ],
    "types": {
      "t_address": {
        "encoding": "inplace",
        "label": "address",
        "numberOfBytes": "20"
      },
      "t_bool": {
        "encoding": "inplace",
        "label": "bool",
        "numberOfBytes": "1"
      },
      "t_bytes32": {
        "encoding": "inplace",
        "label": "bytes32",
        "numberOfBytes": "32"
      },
      "t_mapping(t_address,t_bool)": {
        "encoding": "mapping",
        "key": "t_address",
        "label": "mapping(address => bool)",
        "numberOfBytes": "32",
        "value": "t_bool"
      },
      "t_mapping(t_address,t_mapping(t_address,t_uint256))": {
        "encoding": "mapping",
        "key": "t_address",
        "label": "mapping(address => mapping(address => uint256))",
        "numberOfBytes": "32",
        "value": "t_mapping(t_address,t_uint256)"
      },
      "t_mapping(t_address,t_uint256)": {
        "encoding": "mapping",
        "key": "t_address",
        "label": "mapping(address => uint256)",
        "numberOfBytes": "32",
        "value": "t_uint256"
      },
      "t_mapping(t_bytes32,t_struct(RoleData)33669_storage)": {
        "encoding": "mapping",
        "key": "t_bytes32",
        "label": "mapping(bytes32 => struct AccessControl.RoleData)",
        "numberOfBytes": "32",
        "value": "t_struct(RoleData)33669_storage"
      },
      "t_string_storage": {
        "encoding": "bytes",
        "label": "string",
        "numberOfBytes": "32"
      },
      "t_struct(RoleData)33669_storage": {
        "encoding": "inplace",
        "label": "struct AccessControl.RoleData",
        "members": [
          {
            "astId": 33666,
            "contract": "submodules/v2-foundry/src/AlchemicTokenV2.sol:AlchemicTokenV2",
            "label": "members",
            "offset": 0,
            "slot": "0",
            "type": "t_mapping(t_address,t_bool)"
          },
          {
            "astId": 33668,
            "contract": "submodules/v2-foundry/src/AlchemicTokenV2.sol:AlchemicTokenV2",
            "label": "adminRole",
            "offset": 0,
            "slot": "1",
            "type": "t_bytes32"
          }
        ],
        "numberOfBytes": "64"
      },
      "t_uint256": {
        "encoding": "inplace",
        "label": "uint256",
        "numberOfBytes": "32"
      }
    }
  }
}