{
  "address": "0x98f33d1f6Cd9BB4beE24389a1439DdC474C2994C",
  "abi": [
    {
      "inputs": [
        {
          "components": [
            {
              "internalType": "address",
              "name": "alchemist",
              "type": "address"
            },
            {
              "internalType": "address",
              "name": "debtToken",
              "type": "address"
            },
            {
              "internalType": "address",
              "name": "rewardRouter",
              "type": "address"
            },
            {
              "internalType": "address",
              "name": "rewardToken",
              "type": "address"
            },
            {
              "internalType": "address",
              "name": "swapRouter",
              "type": "address"
            }
          ],
          "internalType": "struct InitializationParams",
          "name": "params",
          "type": "tuple"
        }
      ],
      "stateMutability": "nonpayable",
      "type": "constructor"
    },
    {
      "inputs": [
        {
          "internalType": "address",
          "name": "target",
          "type": "address"
        },
        {
          "internalType": "bool",
          "name": "success",
          "type": "bool"
        },
        {
          "internalType": "bytes",
          "name": "data",
          "type": "bytes"
        }
      ],
      "name": "ERC20CallFailed",
      "type": "error"
    },
    {
      "inputs": [
        {
          "internalType": "string",
          "name": "message",
          "type": "string"
        }
      ],
      "name": "IllegalState",
      "type": "error"
    },
    {
      "anonymous": false,
      "inputs": [
        {
          "indexed": false,
          "internalType": "address",
          "name": "token",
          "type": "address"
        },
        {
          "indexed": false,
          "internalType": "uint256",
          "name": "amount",
          "type": "uint256"
        }
      ],
      "name": "RewardsDonated",
      "type": "event"
    },
    {
      "inputs": [],
      "name": "alchemist",
      "outputs": [
        {
          "internalType": "address",
          "name": "",
          "type": "address"
        }
      ],
      "stateMutability": "view",
      "type": "function"
    },
    {
      "inputs": [
        {
          "internalType": "address",
          "name": "token",
          "type": "address"
        },
        {
          "internalType": "uint256",
          "name": "minimumAmountOut",
          "type": "uint256"
        }
      ],
      "name": "claimAndDonateRewards",
      "outputs": [
        {
          "internalType": "uint256",
          "name": "",
          "type": "uint256"
        }
      ],
      "stateMutability": "nonpayable",
      "type": "function"
    },
    {
      "inputs": [],
      "name": "debtToken",
      "outputs": [
        {
          "internalType": "address",
          "name": "",
          "type": "address"
        }
      ],
      "stateMutability": "view",
      "type": "function"
    },
    {
      "inputs": [],
      "name": "getExpectedExchange",
      "outputs": [
        {
          "internalType": "uint256",
          "name": "",
          "type": "uint256"
        }
      ],
      "stateMutability": "view",
      "type": "function"
    },
    {
      "inputs": [],
      "name": "rewardRouter",
      "outputs": [
        {
          "internalType": "address",
          "name": "",
          "type": "address"
        }
      ],
      "stateMutability": "view",
      "type": "function"
    },
    {
      "inputs": [],
      "name": "rewardToken",
      "outputs": [
        {
          "internalType": "address",
          "name": "",
          "type": "address"
        }
      ],
      "stateMutability": "view",
      "type": "function"
    },
    {
      "inputs": [],
      "name": "swapRouter",
      "outputs": [
        {
          "internalType": "address",
          "name": "",
          "type": "address"
        }
      ],
      "stateMutability": "view",
      "type": "function"
    },
    {
      "inputs": [],
      "name": "version",
      "outputs": [
        {
          "internalType": "string",
          "name": "",
          "type": "string"
        }
      ],
      "stateMutability": "view",
      "type": "function"
    }
  ],
  "transactionHash": "0xb6528aafe3e4e8496bdf35bbcd6c3e88631d8fcc785fb203d19ce3d7bc9474ff",
  "args": [
    {
      "alchemist": "0x10294d57A419C8eb78C648372c5bAA27fD1484af",
      "debtToken": "0xCB8FA9a76b8e203D8C3797bF438d8FB81Ea3326A",
      "rewardRouter": "0x343910697C03477E5Cc0D386FfA5133d1A827Ad7",
      "rewardToken": "0x4200000000000000000000000000000000000042",
      "swapRouter": "0xa062aE8A9c5e11aaA026fc2670B0D65cCc8B2858"
    }
  ],
  "solcInputHash": "16cc5766e33522a81fc5a686c3138446",
  "bytecode": "0x60c060405260056080819052640312e302e360dc1b60a0908152620000289160009190620000ce565b503480156200003657600080fd5b506040516200136b3803806200136b833981016040819052620000599162000191565b8051600180546001600160a01b03199081166001600160a01b039384161790915560208301516002805483169184169190911790556060830151600480548316918416919091179055604083015160038054831691841691909117905560809092015160058054909316911617905562000274565b828054620000dc9062000238565b90600052602060002090601f0160209004810192826200010057600085556200014b565b82601f106200011b57805160ff19168380011785556200014b565b828001600101855582156200014b579182015b828111156200014b5782518255916020019190600101906200012e565b50620001599291506200015d565b5090565b5b808211156200015957600081556001016200015e565b80516001600160a01b03811681146200018c57600080fd5b919050565b600060a08284031215620001a457600080fd5b60405160a081016001600160401b0381118282101715620001d557634e487b7160e01b600052604160045260246000fd5b604052620001e38362000174565b8152620001f36020840162000174565b6020820152620002066040840162000174565b6040820152620002196060840162000174565b60608201526200022c6080840162000174565b60808201529392505050565b600181811c908216806200024d57607f821691505b6020821081036200026e57634e487b7160e01b600052602260045260246000fd5b50919050565b6110e780620002846000396000f3fe608060405234801561001057600080fd5b50600436106100885760003560e01c8063a387b32f1161005b578063a387b32f146100fb578063c31c9c071461010e578063f7c618c114610121578063f8d898981461013457600080fd5b80634f4376be1461008d57806354fd4d50146100a85780635a3bb989146100bd5780638de925f6146100e8575b600080fd5b610095610147565b6040519081526020015b60405180910390f35b6100b061046b565b60405161009f9190610d73565b6003546100d0906001600160a01b031681565b6040516001600160a01b03909116815260200161009f565b6001546100d0906001600160a01b031681565b610095610109366004610d8d565b6104f9565b6005546100d0906001600160a01b031681565b6004546100d0906001600160a01b031681565b6002546100d0906001600160a01b031681565b60045460009081908190610164906001600160a01b031630610b08565b6002549091506001600160a01b031673cb8fa9a76b8e203d8c3797bf438d8fb81ea33269190161033a5760408051600380825260808201909252600091602082016060803683370190505090506042602160991b01816000815181106101cc576101cc610ddb565b60200260200101906001600160a01b031690816001600160a01b031681525050737f5c764cbc14f9669b88837ca1490cca17c316078160018151811061021457610214610ddb565b60200260200101906001600160a01b031690816001600160a01b03168152505073cb8fa9a76b8e203d8c3797bf438d8fb81ea3326a8160028151811061025c5761025c610ddb565b6001600160a01b0390921660209283029190910190910152604051633f9ae6d360e21b815260009073395942c2049604a314d39f370dfb8d87aac89e169063fe6b9b4c906102b1906001908690600401610df1565b600060405180830381865afa1580156102ce573d6000803e3d6000fd5b505050506040513d6000823e601f3d908101601f191682016040526102f69190810190610e4b565b9050670de0b6b3a76400008160008151811061031457610314610ddb565b6020026020010151846103279190610f09565b6103319190610f36565b93505050610465565b6002546001600160a01b0316733e29d3a9316dab217754d13b28646b76607c5f0319016104225760408051600380825260808201909252600091602082016060803683370190505090506042602160991b018160008151811061039f5761039f610ddb565b60200260200101906001600160a01b031690816001600160a01b0316815250506006602160991b01816001815181106103da576103da610ddb565b60200260200101906001600160a01b031690816001600160a01b031681525050733e29d3a9316dab217754d13b28646b76607c5f048160028151811061025c5761025c610ddb565b60405163c50656df60e01b815260206004820152601260248201527124b73b30b634b2103232b13a103a37b5b2b760711b60448201526064015b60405180910390fd5b50919050565b6000805461047890610f58565b80601f01602080910402602001604051908101604052809291908181526020018280546104a490610f58565b80156104f15780601f106104c6576101008083540402835291602001916104f1565b820191906000526020600020905b8154815290600101906020018083116104d457829003601f168201915b505050505081565b6003546000906001600160a01b0316331461054e5760405162461bcd60e51b815260206004820152601560248201527426bab9ba103132902932bbb0b932102937baba32b960591b604482015260640161045c565b826001600160a01b031663372500ab6040518163ffffffff1660e01b81526004016020604051808303816000875af115801561058e573d6000803e3d6000fd5b505050506040513d601f19601f820116820180604052508101906105b29190610f8c565b50600480546040516370a0823160e01b815230928101929092526000916001600160a01b03909116906370a0823190602401602060405180830381865afa158015610601573d6000803e3d6000fd5b505050506040513d601f19601f820116820180604052508101906106259190610f8c565b905080600003610639576000915050610b02565b6002546001600160a01b031673cb8fa9a76b8e203d8c3797bf438d8fb81ea3326a036108565760408051600280825260608201909252600091816020015b604080516080810182526000808252602080830182905292820181905260608201528252600019909201910181610677575050604080516080810182526042602160991b018152737f5c764cbc14f9669b88837ca1490cca17c316076020820152600091810182905273f1046053aa5682b4f9a81b5481394da16be5ff5a606082015282519293509183919061070f5761070f610ddb565b60200260200101819052506040518060800160405280737f5c764cbc14f9669b88837ca1490cca17c316076001600160a01b0316815260200173cb8fa9a76b8e203d8c3797bf438d8fb81ea3326a6001600160a01b0316815260200160011515815260200173f1046053aa5682b4f9a81b5481394da16be5ff5a6001600160a01b0316815250816001815181106107a8576107a8610ddb565b60209081029190910101526004546005546107d0916001600160a01b03908116911684610c0b565b60055460405163cac88ea960e01b81526001600160a01b039091169063cac88ea9906108089085908890869030904290600401610fa5565b6000604051808303816000875af1158015610827573d6000803e3d6000fd5b505050506040513d6000823e601f3d908101601f1916820160405261084f9190810190610e4b565b5050610a0a565b6002546001600160a01b0316733e29d3a9316dab217754d13b28646b76607c5f04036109ab5760408051600280825260608201909252600091816020015b604080516080810182526000808252602080830182905292820181905260608201528252600019909201910181610894575050604080516080810182526042602160991b0181526006602160991b016020820152600091810182905273f1046053aa5682b4f9a81b5481394da16be5ff5a606082015282519293509183919061091f5761091f610ddb565b602002602001018190525060405180608001604052806006602160991b016001600160a01b03168152602001733e29d3a9316dab217754d13b28646b76607c5f046001600160a01b0316815260200160011515815260200173f1046053aa5682b4f9a81b5481394da16be5ff5a6001600160a01b0316815250816001815181106107a8576107a8610ddb565b60405163c50656df60e01b815260206004820152602d60248201527f52657761726420636f6c6c6563746f72206064656274546f6b656e602069732060448201526c1b9bdd081cdd5c1c1bdc9d1959609a1b606482015260840161045c565b6002546040516370a0823160e01b81523060048201526000916001600160a01b0316906370a0823190602401602060405180830381865afa158015610a53573d6000803e3d6000fd5b505050506040513d601f19601f82011682018060405250810190610a779190610f8c565b600254600154919250610a97916001600160a01b03918216911683610c0b565b60015460405163e69d849d60e01b81526001600160a01b038781166004830152602482018490529091169063e69d849d90604401600060405180830381600087803b158015610ae557600080fd5b505af1158015610af9573d6000803e3d6000fd5b50939450505050505b92915050565b604080516001600160a01b0383811660248084019190915283518084039091018152604490920183526020820180516001600160e01b03166370a0823160e01b17905291516000928392839291871691610b629190611047565b600060405180830381855afa9150503d8060008114610b9d576040519150601f19603f3d011682016040523d82523d6000602084013e610ba2565b606091505b5091509150846001600160a01b03163b60001480610bbe575081155b80610bca575060208151105b15610bee5784828260405163e7e40b5b60e01b815260040161045c93929190611063565b80806020019051810190610c029190610f8c565b95945050505050565b604080516001600160a01b038481166024830152604480830185905283518084039091018152606490920183526020820180516001600160e01b031663095ea7b360e01b1790529151600092839290871691610c679190611047565b6000604051808303816000865af19150503d8060008114610ca4576040519150601f19603f3d011682016040523d82523d6000602084013e610ca9565b606091505b5091509150846001600160a01b03163b60001480610cc5575081155b80610cec5750805115801590610cec575080806020019051810190610cea919061108f565b155b15610d105784828260405163e7e40b5b60e01b815260040161045c93929190611063565b5050505050565b60005b83811015610d32578181015183820152602001610d1a565b83811115610d41576000848401525b50505050565b60008151808452610d5f816020860160208601610d17565b601f01601f19169290920160200192915050565b602081526000610d866020830184610d47565b9392505050565b60008060408385031215610da057600080fd5b82356001600160a01b0381168114610db757600080fd5b946020939093013593505050565b634e487b7160e01b600052604160045260246000fd5b634e487b7160e01b600052603260045260246000fd5b60006040820160ff851683526020604081850152818551808452606086019150828701935060005b81811015610e3e5784516001600160a01b031683529383019391830191600101610e19565b5090979650505050505050565b60006020808385031215610e5e57600080fd5b825167ffffffffffffffff80821115610e7657600080fd5b818501915085601f830112610e8a57600080fd5b815181811115610e9c57610e9c610dc5565b8060051b604051601f19603f83011681018181108582111715610ec157610ec1610dc5565b604052918252848201925083810185019188831115610edf57600080fd5b938501935b82851015610efd57845184529385019392850192610ee4565b98975050505050505050565b6000816000190483118215151615610f3157634e487b7160e01b600052601160045260246000fd5b500290565b600082610f5357634e487b7160e01b600052601260045260246000fd5b500490565b600181811c90821680610f6c57607f821691505b60208210810361046557634e487b7160e01b600052602260045260246000fd5b600060208284031215610f9e57600080fd5b5051919050565b600060a0820187835260208781850152604060a08186015282885180855260c087019150838a01945060005b8181101561101b57855180516001600160a01b0390811685528682015181168786015285820151151586860152606091820151169084015294840194608090920191600101610fd1565b50506001600160a01b0388166060870152935061103792505050565b8260808301529695505050505050565b60008251611059818460208701610d17565b9190910192915050565b6001600160a01b03841681528215156020820152606060408201819052600090610c0290830184610d47565b6000602082840312156110a157600080fd5b81518015158114610d8657600080fdfea26469706673582212200aee4c0e0bf1979f94c04ceb7bf70caa2d3039d7d9414827dcab3ee4a448852d64736f6c634300080d0033",
  "devdoc": {
    "author": "Alchemix Finance",
    "errors": {
      "ERC20CallFailed(address,bool,bytes)": [
        {
          "params": {
            "data": "The resulting data from the call. This is error data when the call was not a success. Otherwise,                this is malformed data when the call was a success.",
            "success": "If the call to the token was a success.",
            "target": "The target address."
          }
        }
      ],
      "IllegalState(string)": [
        {
          "params": {
            "message": "The error message."
          }
        }
      ]
    },
    "events": {
      "RewardsDonated(address,uint256)": {
        "params": {
          "amount": "The amount of debt tokens donated.",
          "token": "The yield token that received a donation."
        }
      }
    },
    "kind": "dev",
    "methods": {
      "claimAndDonateRewards(address,uint256)": {
        "params": {
          "minimumAmountOut": "The minimum returns to accept.",
          "token": "The yield token to claim rewards for."
        },
        "returns": {
          "_0": "             The amount of reward tokens claimed."
        }
      }
    },
    "stateVariables": {
      "debtToken": {
        "return": "The debt token",
        "returns": {
          "_0": "The debt token"
        }
      },
      "rewardToken": {
        "return": "The reward token.",
        "returns": {
          "_0": "The reward token."
        }
      },
      "swapRouter": {
        "return": "The swap router address.",
        "returns": {
          "_0": "The swap router address."
        }
      },
      "version": {
        "return": "The version.",
        "returns": {
          "_0": "The version."
        }
      }
    },
    "title": "OptimismYearnRewardCollector",
    "version": 1
  },
  "userdoc": {
    "errors": {
      "ERC20CallFailed(address,bool,bytes)": [
        {
          "notice": "An error used to indicate that a call to an ERC20 contract failed."
        }
      ],
      "IllegalState(string)": [
        {
          "notice": "An error used to indicate that a function has encountered an unrecoverable state."
        }
      ]
    },
    "events": {
      "RewardsDonated(address,uint256)": {
        "notice": "Emitted when a donation occurs."
      }
    },
    "kind": "user",
    "methods": {
      "claimAndDonateRewards(address,uint256)": {
        "notice": "Claims rewards tokens, swaps for debt tokens. "
      },
      "debtToken()": {
        "notice": "Gets the current debt token."
      },
      "getExpectedExchange()": {
        "notice": "Gets expected exchange for OP to debt token."
      },
      "rewardToken()": {
        "notice": "Gets the current reward token."
      },
      "swapRouter()": {
        "notice": "Gets the current swap router."
      },
      "version()": {
        "notice": "Gets the current version."
      }
    },
    "version": 1
  },
  "storageLayout": {
    "storage": [
      {
        "astId": 93965,
        "contract": "submodules/v2-foundry/src/utils/collectors/OptimismYearnRewardCollector.sol:OptimismYearnRewardCollector",
        "label": "version",
        "offset": 0,
        "slot": "0",
        "type": "t_string_storage"
      },
      {
        "astId": 93967,
        "contract": "submodules/v2-foundry/src/utils/collectors/OptimismYearnRewardCollector.sol:OptimismYearnRewardCollector",
        "label": "alchemist",
        "offset": 0,
        "slot": "1",
        "type": "t_address"
      },
      {
        "astId": 93969,
        "contract": "submodules/v2-foundry/src/utils/collectors/OptimismYearnRewardCollector.sol:OptimismYearnRewardCollector",
        "label": "debtToken",
        "offset": 0,
        "slot": "2",
        "type": "t_address"
      },
      {
        "astId": 93971,
        "contract": "submodules/v2-foundry/src/utils/collectors/OptimismYearnRewardCollector.sol:OptimismYearnRewardCollector",
        "label": "rewardRouter",
        "offset": 0,
        "slot": "3",
        "type": "t_address"
      },
      {
        "astId": 93974,
        "contract": "submodules/v2-foundry/src/utils/collectors/OptimismYearnRewardCollector.sol:OptimismYearnRewardCollector",
        "label": "rewardToken",
        "offset": 0,
        "slot": "4",
        "type": "t_address"
      },
      {
        "astId": 93977,
        "contract": "submodules/v2-foundry/src/utils/collectors/OptimismYearnRewardCollector.sol:OptimismYearnRewardCollector",
        "label": "swapRouter",
        "offset": 0,
        "slot": "5",
        "type": "t_address"
      }
    ],
    "types": {
      "t_address": {
        "encoding": "inplace",
        "label": "address",
        "numberOfBytes": "20"
      },
      "t_string_storage": {
        "encoding": "bytes",
        "label": "string",
        "numberOfBytes": "32"
      }
    }
  }
}