{
  "address": "0xd2c921985A09be0D27e5a4027a77dB55d08A1875",
  "abi": [
    {
      "inputs": [
        {
          "internalType": "address",
          "name": "_token",
          "type": "address"
        },
        {
          "internalType": "address",
          "name": "_underlyingToken",
          "type": "address"
        }
      ],
      "stateMutability": "nonpayable",
      "type": "constructor"
    },
    {
      "inputs": [
        {
          "internalType": "address",
          "name": "target",
          "type": "address"
        },
        {
          "internalType": "bool",
          "name": "success",
          "type": "bool"
        },
        {
          "internalType": "bytes",
          "name": "data",
          "type": "bytes"
        }
      ],
      "name": "ERC20CallFailed",
      "type": "error"
    },
    {
      "inputs": [],
      "name": "IllegalState",
      "type": "error"
    },
    {
      "inputs": [],
      "name": "price",
      "outputs": [
        {
          "internalType": "uint256",
          "name": "",
          "type": "uint256"
        }
      ],
      "stateMutability": "view",
      "type": "function"
    },
    {
      "inputs": [],
      "name": "token",
      "outputs": [
        {
          "internalType": "address",
          "name": "",
          "type": "address"
        }
      ],
      "stateMutability": "view",
      "type": "function"
    },
    {
      "inputs": [],
      "name": "underlyingToken",
      "outputs": [
        {
          "internalType": "address",
          "name": "",
          "type": "address"
        }
      ],
      "stateMutability": "view",
      "type": "function"
    },
    {
      "inputs": [
        {
          "internalType": "uint256",
          "name": "amount",
          "type": "uint256"
        },
        {
          "internalType": "address",
          "name": "recipient",
          "type": "address"
        }
      ],
      "name": "unwrap",
      "outputs": [
        {
          "internalType": "uint256",
          "name": "",
          "type": "uint256"
        }
      ],
      "stateMutability": "nonpayable",
      "type": "function"
    },
    {
      "inputs": [],
      "name": "version",
      "outputs": [
        {
          "internalType": "string",
          "name": "",
          "type": "string"
        }
      ],
      "stateMutability": "view",
      "type": "function"
    },
    {
      "inputs": [
        {
          "internalType": "uint256",
          "name": "amount",
          "type": "uint256"
        },
        {
          "internalType": "address",
          "name": "recipient",
          "type": "address"
        }
      ],
      "name": "wrap",
      "outputs": [
        {
          "internalType": "uint256",
          "name": "",
          "type": "uint256"
        }
      ],
      "stateMutability": "nonpayable",
      "type": "function"
    }
  ],
  "transactionHash": "0x1e588a543aba43ab32df643b67b73056faa272945d0c5f40c21313c9bd796821",
  "args": [
    "0xA628c54C850ff1077b5C954491D19EccE7e321fF",
    "0x4200000000000000000000000000000000000006"
  ],
  "solcInputHash": "033348452c77ff50d74641c32df2f08d",
  "bytecode": "0x60c060405234801561001057600080fd5b50604051610a40380380610a4083398101604081905261002f91610062565b6001600160a01b039182166080521660a052610095565b80516001600160a01b038116811461005d57600080fd5b919050565b6000806040838503121561007557600080fd5b61007e83610046565b915061008c60208401610046565b90509250929050565b60805160a05161093a610106600039600081816092015281816101460152818161017201526101be01526000818161011d01528181610193015281816101df0152818161022a015281816102a5015281816102d30152818161032c015281816103a201526103ff015261093a6000f3fe608060405234801561001057600080fd5b50600436106100625760003560e01c806313bac820146100675780632495a5991461008d57806354fd4d50146100cc5780637647691d146100fd578063a035b1fe14610110578063fc0c546a14610118575b600080fd5b61007a6100753660046107b1565b61013f565b6040519081526020015b60405180910390f35b6100b47f000000000000000000000000000000000000000000000000000000000000000081565b6040516001600160a01b039091168152602001610084565b6100f0604051806040016040528060058152602001640322e312e360dc1b81525081565b6040516100849190610849565b61007a61010b3660046107b1565b61029e565b61007a6103fb565b6100b47f000000000000000000000000000000000000000000000000000000000000000081565b600061016d7f0000000000000000000000000000000000000000000000000000000000000000333086610484565b6101b97f00000000000000000000000000000000000000000000000000000000000000007f000000000000000000000000000000000000000000000000000000000000000060006105a2565b6102047f00000000000000000000000000000000000000000000000000000000000000007f0000000000000000000000000000000000000000000000000000000000000000856105a2565b604051636e553f6560e01b8152600481018490526001600160a01b0383811660248301527f00000000000000000000000000000000000000000000000000000000000000001690636e553f65906044016020604051808303816000875af1158015610273573d6000803e3d6000fd5b505050506040513d601f19601f82011682018060405250810190610297919061085c565b9392505050565b60006102cc7f0000000000000000000000000000000000000000000000000000000000000000333086610484565b60006102f87f0000000000000000000000000000000000000000000000000000000000000000306106ae565b604051631cc6d2f960e31b8152600481018690526001600160a01b03858116602483015261271060448301529192506000917f0000000000000000000000000000000000000000000000000000000000000000169063e63697c8906064016020604051808303816000875af1158015610375573d6000803e3d6000fd5b505050506040513d601f19601f82011682018060405250810190610399919061085c565b905060006103c77f0000000000000000000000000000000000000000000000000000000000000000306106ae565b9050856103d48285610875565b146103f257604051634a613c4160e01b815260040160405180910390fd5b50949350505050565b60007f00000000000000000000000000000000000000000000000000000000000000006001600160a01b03166399530b066040518163ffffffff1660e01b8152600401602060405180830381865afa15801561045b573d6000803e3d6000fd5b505050506040513d601f19601f8201168201806040525081019061047f919061085c565b905090565b604080516001600160a01b0385811660248301528481166044830152606480830185905283518084039091018152608490920183526020820180516001600160e01b03166323b872dd60e01b17905291516000928392908816916104e8919061089a565b6000604051808303816000865af19150503d8060008114610525576040519150601f19603f3d011682016040523d82523d6000602084013e61052a565b606091505b5091509150856001600160a01b03163b60001480610546575081155b8061056d575080511580159061056d57508080602001905181019061056b91906108b6565b155b1561059a5785828260405163e7e40b5b60e01b8152600401610591939291906108d8565b60405180910390fd5b505050505050565b604080516001600160a01b038481166024830152604480830185905283518084039091018152606490920183526020820180516001600160e01b031663095ea7b360e01b17905291516000928392908716916105fe919061089a565b6000604051808303816000865af19150503d806000811461063b576040519150601f19603f3d011682016040523d82523d6000602084013e610640565b606091505b5091509150846001600160a01b03163b6000148061065c575081155b80610683575080511580159061068357508080602001905181019061068191906108b6565b155b156106a75784828260405163e7e40b5b60e01b8152600401610591939291906108d8565b5050505050565b604080516001600160a01b0383811660248084019190915283518084039091018152604490920183526020820180516001600160e01b03166370a0823160e01b17905291516000928392839291871691610708919061089a565b600060405180830381855afa9150503d8060008114610743576040519150601f19603f3d011682016040523d82523d6000602084013e610748565b606091505b5091509150846001600160a01b03163b60001480610764575081155b80610770575060208151105b156107945784828260405163e7e40b5b60e01b8152600401610591939291906108d8565b808060200190518101906107a8919061085c565b95945050505050565b600080604083850312156107c457600080fd5b8235915060208301356001600160a01b03811681146107e257600080fd5b809150509250929050565b60005b838110156108085781810151838201526020016107f0565b83811115610817576000848401525b50505050565b600081518084526108358160208601602086016107ed565b601f01601f19169290920160200192915050565b602081526000610297602083018461081d565b60006020828403121561086e57600080fd5b5051919050565b60008282101561089557634e487b7160e01b600052601160045260246000fd5b500390565b600082516108ac8184602087016107ed565b9190910192915050565b6000602082840312156108c857600080fd5b8151801515811461029757600080fd5b6001600160a01b038416815282151560208201526060604082018190526000906107a89083018461081d56fea2646970667358221220366e44ea9df79c6a6750e14b869e20379da1123c2275e83c11e5a188a779f9e164736f6c634300080d0033",
  "devdoc": {
    "author": "Alchemix Finance",
    "errors": {
      "ERC20CallFailed(address,bool,bytes)": [
        {
          "params": {
            "data": "The resulting data from the call. This is error data when the call was not a success. Otherwise,                this is malformed data when the call was a success.",
            "success": "If the call to the token was a success.",
            "target": "The target address."
          }
        }
      ]
    },
    "kind": "dev",
    "methods": {
      "price()": {
        "returns": {
          "_0": "The price."
        }
      },
      "unwrap(uint256,address)": {
        "params": {
          "amount": "The amount of yield-tokens to redeem.",
          "recipient": "The recipient of the resulting underlying-tokens."
        },
        "returns": {
          "_0": "The amount of underlying tokens unwrapped to `recipient`."
        }
      },
      "wrap(uint256,address)": {
        "params": {
          "amount": "The amount of the underlying token to wrap.",
          "recipient": "The address which will receive the yield tokens."
        },
        "returns": {
          "_0": "The amount of yield tokens minted to `recipient`."
        }
      }
    },
    "stateVariables": {
      "token": {
        "return": "The address of the yield token.",
        "returns": {
          "_0": "The address of the yield token."
        }
      },
      "underlyingToken": {
        "return": "The address of the underlying token.",
        "returns": {
          "_0": "The address of the underlying token."
        }
      },
      "version": {
        "return": "The version.",
        "returns": {
          "_0": "The version."
        }
      }
    },
    "title": "YearnTokenAdapter",
    "version": 1
  },
  "userdoc": {
    "errors": {
      "ERC20CallFailed(address,bool,bytes)": [
        {
          "notice": "An error used to indicate that a call to an ERC20 contract failed."
        }
      ],
      "IllegalState()": [
        {
          "notice": "An error used to indicate that an action could not be completed because the contract either already existed         or entered an illegal condition which is not recoverable from."
        }
      ]
    },
    "kind": "user",
    "methods": {
      "price()": {
        "notice": "Gets the number of underlying tokens that a single whole yield token is redeemable         for."
      },
      "token()": {
        "notice": "Gets the address of the yield token that this adapter supports."
      },
      "underlyingToken()": {
        "notice": "Gets the address of the underlying token that the yield token wraps."
      },
      "unwrap(uint256,address)": {
        "notice": "Unwraps `amount` yield tokens into the underlying token."
      },
      "version()": {
        "notice": "Gets the current version."
      },
      "wrap(uint256,address)": {
        "notice": "Wraps `amount` underlying tokens into the yield token."
      }
    },
    "version": 1
  },
  "storageLayout": {
    "storage": [],
    "types": null
  }
}