{
  "address": "0xFF7D5c7dA613A91f31915c7bf6F4ab07a2B37EE9",
  "abi": [
    {
      "inputs": [
        {
          "internalType": "address",
          "name": "target",
          "type": "address"
        },
        {
          "internalType": "bool",
          "name": "success",
          "type": "bool"
        },
        {
          "internalType": "bytes",
          "name": "data",
          "type": "bytes"
        }
      ],
      "name": "ERC20CallFailed",
      "type": "error"
    },
    {
      "inputs": [
        {
          "internalType": "string",
          "name": "message",
          "type": "string"
        }
      ],
      "name": "IllegalState",
      "type": "error"
    },
    {
      "inputs": [
        {
          "internalType": "uint256",
          "name": "debt",
          "type": "uint256"
        },
        {
          "internalType": "address",
          "name": "yieldToken",
          "type": "address"
        },
        {
          "internalType": "address",
          "name": "underlyingToken",
          "type": "address"
        },
        {
          "internalType": "address",
          "name": "alchemist",
          "type": "address"
        }
      ],
      "name": "normalizeDebtTokensToShares",
      "outputs": [
        {
          "internalType": "uint256",
          "name": "",
          "type": "uint256"
        }
      ],
      "stateMutability": "view",
      "type": "function"
    },
    {
      "inputs": [
        {
          "internalType": "uint256",
          "name": "shares",
          "type": "uint256"
        },
        {
          "internalType": "address",
          "name": "yieldToken",
          "type": "address"
        },
        {
          "internalType": "address",
          "name": "underlyingToken",
          "type": "address"
        },
        {
          "internalType": "address",
          "name": "alchemist",
          "type": "address"
        }
      ],
      "name": "normalizeSharesToDebtTokens",
      "outputs": [
        {
          "internalType": "uint256",
          "name": "",
          "type": "uint256"
        }
      ],
      "stateMutability": "view",
      "type": "function"
    },
    {
      "inputs": [],
      "name": "version",
      "outputs": [
        {
          "internalType": "string",
          "name": "",
          "type": "string"
        }
      ],
      "stateMutability": "view",
      "type": "function"
    }
  ],
  "transactionHash": "0x362e5781671ded75b3dcf0e7656b580b1728a10f8e01c5c170d030742eb6601b",
  "args": [],
  "solcInputHash": "e684eba7a1924e1ea3d7977fa97b577a",
  "bytecode": "0x60c060405260056080819052640312e302e360dc1b60a09081526100269160009190610045565b50670de0b6b3a764000060015534801561003f57600080fd5b50610118565b828054610051906100de565b90600052602060002090601f01602090048101928261007357600085556100b9565b82601f1061008c57805160ff19168380011785556100b9565b828001600101855582156100b9579182015b828111156100b957825182559160200191906001019061009e565b506100c59291506100c9565b5090565b5b808211156100c557600081556001016100ca565b600181811c908216806100f257607f821691505b60208210810361011257634e487b7160e01b600052602260045260246000fd5b50919050565b610792806101276000396000f3fe608060405234801561001057600080fd5b50600436106100415760003560e01c806354fd4d501461004657806390c1918014610064578063a3486d6a14610085575b600080fd5b61004e610098565b60405161005b919061045f565b60405180910390f35b610077610072366004610495565b610126565b60405190815260200161005b565b610077610093366004610495565b610227565b600080546100a5906104e2565b80601f01602080910402602001604051908101604052809291908181526020018280546100d1906104e2565b801561011e5780601f106100f35761010080835404028352916020019161011e565b820191906000526020600020905b81548152906001019060200180831161010157829003601f168201915b505050505081565b6000601261013384610315565b60ff16111561015e5760405163c50656df60e01b81526004016101559061051c565b60405180910390fd5b600061016985610315565b61017490600a61065c565b60405163447378ad60e11b81526001600160a01b0387811660048301528516906388e6f15a90602401602060405180830381865afa1580156101ba573d6000803e3d6000fd5b505050506040513d601f19601f820116820180604052508101906101de919061066b565b6101e89088610684565b6101f291906106a3565b90506101fd84610315565b6102089060126106c5565b61021390600a61065c565b61021d9082610684565b9695505050505050565b6000601261023484610315565b60ff1611156102565760405163c50656df60e01b81526004016101559061051c565b600061026184610315565b61026c9060126106c5565b61027790600a61065c565b61028190876106a3565b905061028c85610315565b61029790600a61065c565b60405163447378ad60e11b81526001600160a01b0387811660048301528516906388e6f15a90602401602060405180830381865afa1580156102dd573d6000803e3d6000fd5b505050506040513d601f19601f82011682018060405250810190610301919061066b565b61030b90836106a3565b61021d9190610684565b60408051600481526024810182526020810180516001600160e01b031663313ce56760e01b1790529051600091829182916001600160a01b0386169161035b91906106e8565b600060405180830381855afa9150503d8060008114610396576040519150601f19603f3d011682016040523d82523d6000602084013e61039b565b606091505b5091509150836001600160a01b03163b600014806103b7575081155b806103c3575060208151105b156103e75783828260405163e7e40b5b60e01b815260040161015593929190610704565b808060200190518101906103fb9190610739565b949350505050565b60005b8381101561041e578181015183820152602001610406565b8381111561042d576000848401525b50505050565b6000815180845261044b816020860160208601610403565b601f01601f19169290920160200192915050565b6020815260006104726020830184610433565b9392505050565b80356001600160a01b038116811461049057600080fd5b919050565b600080600080608085870312156104ab57600080fd5b843593506104bb60208601610479565b92506104c960408601610479565b91506104d760608601610479565b905092959194509250565b600181811c908216806104f657607f821691505b60208210810361051657634e487b7160e01b600052602260045260246000fd5b50919050565b60208082526024908201527f556e6465726c79696e6720746f6b656e20646563696d616c73206578636565646040820152630e64062760e31b606082015260800190565b634e487b7160e01b600052601160045260246000fd5b600181815b808511156105b157816000190482111561059757610597610560565b808516156105a457918102915b93841c939080029061057b565b509250929050565b6000826105c857506001610656565b816105d557506000610656565b81600181146105eb57600281146105f557610611565b6001915050610656565b60ff84111561060657610606610560565b50506001821b610656565b5060208310610133831016604e8410600b8410161715610634575081810a610656565b61063e8383610576565b806000190482111561065257610652610560565b0290505b92915050565b600061047260ff8416836105b9565b60006020828403121561067d57600080fd5b5051919050565b600081600019048311821515161561069e5761069e610560565b500290565b6000826106c057634e487b7160e01b600052601260045260246000fd5b500490565b600060ff821660ff8416808210156106df576106df610560565b90039392505050565b600082516106fa818460208701610403565b9190910192915050565b6001600160a01b0384168152821515602082015260606040820181905260009061073090830184610433565b95945050505050565b60006020828403121561074b57600080fd5b815160ff8116811461047257600080fdfea26469706673582212209d4f2dc5e434f2d1814756054435a7448ec0bc2a8d4cf58d5533356d898ad94b64736f6c634300080d0033",
  "devdoc": {
    "errors": {
      "ERC20CallFailed(address,bool,bytes)": [
        {
          "params": {
            "data": "The resulting data from the call. This is error data when the call was not a success. Otherwise,                this is malformed data when the call was a success.",
            "success": "If the call to the token was a success.",
            "target": "The target address."
          }
        }
      ],
      "IllegalState(string)": [
        {
          "params": {
            "message": "The error message."
          }
        }
      ]
    },
    "kind": "dev",
    "methods": {},
    "version": 1
  },
  "userdoc": {
    "errors": {
      "ERC20CallFailed(address,bool,bytes)": [
        {
          "notice": "An error used to indicate that a call to an ERC20 contract failed."
        }
      ],
      "IllegalState(string)": [
        {
          "notice": "An error used to indicate that a function has encountered an unrecoverable state."
        }
      ]
    },
    "kind": "user",
    "methods": {},
    "version": 1
  },
  "storageLayout": {
    "storage": [
      {
        "astId": 89412,
        "contract": "submodules/v2-foundry/src/utils/AlchemixTokenMath.sol:AlchemixTokenMath",
        "label": "version",
        "offset": 0,
        "slot": "0",
        "type": "t_string_storage"
      },
      {
        "astId": 89415,
        "contract": "submodules/v2-foundry/src/utils/AlchemixTokenMath.sol:AlchemixTokenMath",
        "label": "FIXED_POINT_SCALAR",
        "offset": 0,
        "slot": "1",
        "type": "t_uint256"
      }
    ],
    "types": {
      "t_string_storage": {
        "encoding": "bytes",
        "label": "string",
        "numberOfBytes": "32"
      },
      "t_uint256": {
        "encoding": "inplace",
        "label": "uint256",
        "numberOfBytes": "32"
      }
    }
  }
}