{
  "address": "0xfa6A5D33e18CB0d52991536ab15750fB13119E45",
  "abi": [
    {
      "inputs": [
        {
          "components": [
            {
              "internalType": "address",
              "name": "alchemist",
              "type": "address"
            },
            {
              "internalType": "address",
              "name": "curvePool",
              "type": "address"
            },
            {
              "internalType": "address",
              "name": "minter",
              "type": "address"
            },
            {
              "internalType": "address",
              "name": "token",
              "type": "address"
            },
            {
              "internalType": "address",
              "name": "parentToken",
              "type": "address"
            },
            {
              "internalType": "address",
              "name": "underlyingToken",
              "type": "address"
            },
            {
              "internalType": "uint128",
              "name": "curvePoolEthIndex",
              "type": "uint128"
            },
            {
              "internalType": "uint128",
              "name": "curvePoolfrxEthIndex",
              "type": "uint128"
            }
          ],
          "internalType": "struct InitializationParams",
          "name": "params",
          "type": "tuple"
        }
      ],
      "stateMutability": "nonpayable",
      "type": "constructor"
    },
    {
      "inputs": [
        {
          "internalType": "address",
          "name": "target",
          "type": "address"
        },
        {
          "internalType": "bool",
          "name": "success",
          "type": "bool"
        },
        {
          "internalType": "bytes",
          "name": "data",
          "type": "bytes"
        }
      ],
      "name": "ERC20CallFailed",
      "type": "error"
    },
    {
      "inputs": [
        {
          "internalType": "string",
          "name": "message",
          "type": "string"
        }
      ],
      "name": "IllegalState",
      "type": "error"
    },
    {
      "inputs": [
        {
          "internalType": "string",
          "name": "message",
          "type": "string"
        }
      ],
      "name": "Unauthorized",
      "type": "error"
    },
    {
      "inputs": [],
      "name": "alchemist",
      "outputs": [
        {
          "internalType": "address",
          "name": "",
          "type": "address"
        }
      ],
      "stateMutability": "view",
      "type": "function"
    },
    {
      "inputs": [],
      "name": "curvePool",
      "outputs": [
        {
          "internalType": "address",
          "name": "",
          "type": "address"
        }
      ],
      "stateMutability": "view",
      "type": "function"
    },
    {
      "inputs": [],
      "name": "curvePoolEthIndex",
      "outputs": [
        {
          "internalType": "uint128",
          "name": "",
          "type": "uint128"
        }
      ],
      "stateMutability": "view",
      "type": "function"
    },
    {
      "inputs": [],
      "name": "curvePoolfrxEthIndex",
      "outputs": [
        {
          "internalType": "uint128",
          "name": "",
          "type": "uint128"
        }
      ],
      "stateMutability": "view",
      "type": "function"
    },
    {
      "inputs": [],
      "name": "minter",
      "outputs": [
        {
          "internalType": "address",
          "name": "",
          "type": "address"
        }
      ],
      "stateMutability": "view",
      "type": "function"
    },
    {
      "inputs": [],
      "name": "parentToken",
      "outputs": [
        {
          "internalType": "address",
          "name": "",
          "type": "address"
        }
      ],
      "stateMutability": "view",
      "type": "function"
    },
    {
      "inputs": [],
      "name": "price",
      "outputs": [
        {
          "internalType": "uint256",
          "name": "",
          "type": "uint256"
        }
      ],
      "stateMutability": "view",
      "type": "function"
    },
    {
      "inputs": [],
      "name": "token",
      "outputs": [
        {
          "internalType": "address",
          "name": "",
          "type": "address"
        }
      ],
      "stateMutability": "view",
      "type": "function"
    },
    {
      "inputs": [],
      "name": "underlyingToken",
      "outputs": [
        {
          "internalType": "address",
          "name": "",
          "type": "address"
        }
      ],
      "stateMutability": "view",
      "type": "function"
    },
    {
      "inputs": [
        {
          "internalType": "uint256",
          "name": "amount",
          "type": "uint256"
        },
        {
          "internalType": "address",
          "name": "recipient",
          "type": "address"
        }
      ],
      "name": "unwrap",
      "outputs": [
        {
          "internalType": "uint256",
          "name": "",
          "type": "uint256"
        }
      ],
      "stateMutability": "nonpayable",
      "type": "function"
    },
    {
      "inputs": [],
      "name": "version",
      "outputs": [
        {
          "internalType": "string",
          "name": "",
          "type": "string"
        }
      ],
      "stateMutability": "view",
      "type": "function"
    },
    {
      "inputs": [
        {
          "internalType": "uint256",
          "name": "amount",
          "type": "uint256"
        },
        {
          "internalType": "address",
          "name": "recipient",
          "type": "address"
        }
      ],
      "name": "wrap",
      "outputs": [
        {
          "internalType": "uint256",
          "name": "",
          "type": "uint256"
        }
      ],
      "stateMutability": "nonpayable",
      "type": "function"
    },
    {
      "stateMutability": "payable",
      "type": "receive"
    }
  ],
  "transactionHash": "0x3fe7039b8688e2bb25fba9c988f883d6c0627aedd17421b64c6f8d19ddebe402",
  "args": [
    {
      "alchemist": "0x062Bf725dC4cDF947aa79Ca2aaCCD4F385b13b5c",
      "curvePool": "0xa1F8A6807c402E4A15ef4EBa36528A3FED24E577",
      "curvePoolEthIndex": 0,
      "curvePoolfrxEthIndex": 1,
      "minter": "0xbAFA44EFE7901E04E39Dad13167D089C559c1138",
      "token": "0xac3E018457B222d93114458476f3E3416Abbe38F",
      "parentToken": "0x5E8422345238F34275888049021821E8E08CAa1f",
      "underlyingToken": "0xC02aaA39b223FE8D0A0e5C4F27eAD9083C756Cc2"
    }
  ],
  "solcInputHash": "a88ccb5c64333df399bcd00bfc442778",
  "bytecode": "0x6101806040526000805460ff191660011790553480156200001f57600080fd5b50604051620016e3380380620016e38339810160408190526200004291620000e3565b80516001600160a01b0390811660809081526020830151821660a090815260c0808501516001600160801b039081166101405260e080870151909116610160526040860151851690915260608501518416905290830151821661010052909101511661012052620001c7565b80516001600160a01b0381168114620000c657600080fd5b919050565b80516001600160801b0381168114620000c657600080fd5b6000610100808385031215620000f857600080fd5b604051908101906001600160401b03821181831017156200012957634e487b7160e01b600052604160045260246000fd5b816040526200013884620000ae565b81526200014860208501620000ae565b60208201526200015b60408501620000ae565b60408201526200016e60608501620000ae565b60608201526200018160808501620000ae565b60808201526200019460a08501620000ae565b60a0820152620001a760c08501620000cb565b60c0820152620001ba60e08501620000cb565b60e0820152949350505050565b60805160a05160c05160e05161010051610120516101405161016051611409620002da6000396000818161027d0152610b0e0152600081816103300152610b3901526000818160bb015281816102490152818161047b015281816104b801528181610beb0152610c62015260008181610364015281816105330152818161063e015281816106bb0152818161085d01528181610a3d0152610ab90152600081816103e1015281816106dc015281816107270152818161081e015281816108d4015281816109060152610ca801526000818161019601526105ab01526000818160ef0152818161021501528181610ada0152610b720152600081816103980152818161041801526107bb01526114096000f3fe6080604052600436106100ab5760003560e01c80637647691d116100645780637647691d146102fe57806376fa81d61461031e57806380a54001146103525780638de925f614610386578063a035b1fe146103ba578063fc0c546a146103cf57600080fd5b8063075461721461018457806313bac820146101d5578063218751b2146102035780632495a599146102375780633851c6af1461026b57806354fd4d50146102c057600080fd5b3661017f57336001600160a01b037f000000000000000000000000000000000000000000000000000000000000000016148015906101125750336001600160a01b037f00000000000000000000000000000000000000000000000000000000000000001614155b1561017d5760405163973d02cb60e01b815260206004820152602f60248201527f5061796d656e7473206f6e6c79207065726d69747465642066726f6d2057455460448201526e12081bdc8818dd5c9d99481c1bdbdb608a1b60648201526084015b60405180910390fd5b005b600080fd5b34801561019057600080fd5b506101b87f000000000000000000000000000000000000000000000000000000000000000081565b6040516001600160a01b0390911681526020015b60405180910390f35b3480156101e157600080fd5b506101f56101f03660046110fb565b610403565b6040519081526020016101cc565b34801561020f57600080fd5b506101b87f000000000000000000000000000000000000000000000000000000000000000081565b34801561024357600080fd5b506101b87f000000000000000000000000000000000000000000000000000000000000000081565b34801561027757600080fd5b5061029f7f000000000000000000000000000000000000000000000000000000000000000081565b6040516fffffffffffffffffffffffffffffffff90911681526020016101cc565b3480156102cc57600080fd5b506102f1604051806040016040528060058152602001640312e302e360dc1b81525081565b6040516101cc9190611193565b34801561030a57600080fd5b506101f56103193660046110fb565b6107a6565b34801561032a57600080fd5b5061029f7f000000000000000000000000000000000000000000000000000000000000000081565b34801561035e57600080fd5b506101b87f000000000000000000000000000000000000000000000000000000000000000081565b34801561039257600080fd5b506101b87f000000000000000000000000000000000000000000000000000000000000000081565b3480156103c657600080fd5b506101f5610c88565b3480156103db57600080fd5b506101b87f000000000000000000000000000000000000000000000000000000000000000081565b600061040d610d20565b336001600160a01b037f000000000000000000000000000000000000000000000000000000000000000016146104765760405163973d02cb60e01b815260206004820152600d60248201526c139bdd08185b18da195b5a5cdd609a1b6044820152606401610174565b6104a27f0000000000000000000000000000000000000000000000000000000000000000333086610d95565b604051632e1a7d4d60e01b8152600481018490527f00000000000000000000000000000000000000000000000000000000000000006001600160a01b031690632e1a7d4d90602401600060405180830381600087803b15801561050457600080fd5b505af1158015610518573d6000803e3d6000fd5b50506040516370a0823160e01b8152306004820152600092507f00000000000000000000000000000000000000000000000000000000000000006001600160a01b031691506370a0823190602401602060405180830381865afa158015610583573d6000803e3d6000fd5b505050506040513d601f19601f820116820180604052508101906105a791906111ad565b90507f00000000000000000000000000000000000000000000000000000000000000006001600160a01b0316635bcb2fc6856040518263ffffffff1660e01b81526004016000604051808303818588803b15801561060457600080fd5b505af1158015610618573d6000803e3d6000fd5b50506040516370a0823160e01b8152306004820152600093508492506001600160a01b037f00000000000000000000000000000000000000000000000000000000000000001691506370a0823190602401602060405180830381865afa158015610686573d6000803e3d6000fd5b505050506040513d601f19601f820116820180604052508101906106aa91906111ad565b6106b491906111dc565b90506107017f00000000000000000000000000000000000000000000000000000000000000007f000000000000000000000000000000000000000000000000000000000000000083610eaa565b604051636e553f6560e01b8152600481018290526001600160a01b0385811660248301527f00000000000000000000000000000000000000000000000000000000000000001690636e553f65906044016020604051808303816000875af1158015610770573d6000803e3d6000fd5b505050506040513d601f19601f8201168201806040525081019061079491906111ad565b925050506107a0610fc7565b92915050565b60006107b0610d20565b336001600160a01b037f000000000000000000000000000000000000000000000000000000000000000016146108195760405163973d02cb60e01b815260206004820152600d60248201526c139bdd08185b18da195b5a5cdd609a1b6044820152606401610174565b6108457f0000000000000000000000000000000000000000000000000000000000000000333086610d95565b6040516370a0823160e01b81523060048201526000907f00000000000000000000000000000000000000000000000000000000000000006001600160a01b0316906370a0823190602401602060405180830381865afa1580156108ac573d6000803e3d6000fd5b505050506040513d601f19601f820116820180604052508101906108d091906111ad565b90507f00000000000000000000000000000000000000000000000000000000000000006001600160a01b031663b460af9461092a7f0000000000000000000000000000000000000000000000000000000000000000610fda565b61093590600a6112d7565b306001600160a01b031663a035b1fe6040518163ffffffff1660e01b8152600401602060405180830381865afa158015610973573d6000803e3d6000fd5b505050506040513d601f19601f8201168201806040525081019061099791906111ad565b6109a190886112e6565b6109ab9190611305565b6040516001600160e01b031960e084901b1681526004810191909152306024820181905260448201526064016020604051808303816000875af11580156109f6573d6000803e3d6000fd5b505050506040513d601f19601f82011682018060405250810190610a1a91906111ad565b506040516370a0823160e01b815230600482015260009082906001600160a01b037f000000000000000000000000000000000000000000000000000000000000000016906370a0823190602401602060405180830381865afa158015610a84573d6000803e3d6000fd5b505050506040513d601f19601f82011682018060405250810190610aa891906111ad565b610ab291906111dc565b9050610aff7f00000000000000000000000000000000000000000000000000000000000000007f000000000000000000000000000000000000000000000000000000000000000083610eaa565b604051630f7c084960e21b81527f0000000000000000000000000000000000000000000000000000000000000000600f90810b60048301527f0000000000000000000000000000000000000000000000000000000000000000900b602482015260448101829052600060648201819052907f00000000000000000000000000000000000000000000000000000000000000006001600160a01b031690633df02124906084016020604051808303816000875af1158015610bc3573d6000803e3d6000fd5b505050506040513d601f19601f82011682018060405250810190610be791906111ad565b90507f00000000000000000000000000000000000000000000000000000000000000006001600160a01b031663d0e30db0826040518263ffffffff1660e01b81526004016000604051808303818588803b158015610c4457600080fd5b505af1158015610c58573d6000803e3d6000fd5b50505050506107947f000000000000000000000000000000000000000000000000000000000000000086836110c8565b6040516303d1689d60e11b8152670de0b6b3a764000060048201526000907f00000000000000000000000000000000000000000000000000000000000000006001600160a01b0316906307a2d13a90602401602060405180830381865afa158015610cf7573d6000803e3d6000fd5b505050506040513d601f19601f82011682018060405250810190610d1b91906111ad565b905090565b600160005460ff166002811115610d3957610d39611327565b14610d7e5760405163c50656df60e01b8152602060048201526014602482015273131bd8dac8185b1c9958591e4818db185a5b595960621b6044820152606401610174565b600080546002919060ff19166001835b0217905550565b604080516001600160a01b0385811660248301528481166044830152606480830185905283518084039091018152608490920183526020820180516001600160e01b03166323b872dd60e01b1790529151600092839290881691610df9919061133d565b6000604051808303816000865af19150503d8060008114610e36576040519150601f19603f3d011682016040523d82523d6000602084013e610e3b565b606091505b5091509150856001600160a01b03163b60001480610e57575081155b80610e7e5750805115801590610e7e575080806020019051810190610e7c9190611359565b155b15610ea25785828260405163e7e40b5b60e01b81526004016101749392919061137b565b505050505050565b6040516001600160a01b03838116602483015260448201839052600091829186169063095ea7b360e01b906064015b60408051601f198184030181529181526020820180516001600160e01b03166001600160e01b0319909416939093179092529051610f17919061133d565b6000604051808303816000865af19150503d8060008114610f54576040519150601f19603f3d011682016040523d82523d6000602084013e610f59565b606091505b5091509150846001600160a01b03163b60001480610f75575081155b80610f9c5750805115801590610f9c575080806020019051810190610f9a9190611359565b155b15610fc05784828260405163e7e40b5b60e01b81526004016101749392919061137b565b5050505050565b600080546001919060ff19168280610d8e565b60408051600481526024810182526020810180516001600160e01b031663313ce56760e01b1790529051600091829182916001600160a01b03861691611020919061133d565b600060405180830381855afa9150503d806000811461105b576040519150601f19603f3d011682016040523d82523d6000602084013e611060565b606091505b5091509150836001600160a01b03163b6000148061107c575081155b80611088575060208151105b156110ac5783828260405163e7e40b5b60e01b81526004016101749392919061137b565b808060200190518101906110c091906113b0565b949350505050565b6040516001600160a01b03838116602483015260448201839052600091829186169063a9059cbb60e01b90606401610ed9565b6000806040838503121561110e57600080fd5b8235915060208301356001600160a01b038116811461112c57600080fd5b809150509250929050565b60005b8381101561115257818101518382015260200161113a565b83811115611161576000848401525b50505050565b6000815180845261117f816020860160208601611137565b601f01601f19169290920160200192915050565b6020815260006111a66020830184611167565b9392505050565b6000602082840312156111bf57600080fd5b5051919050565b634e487b7160e01b600052601160045260246000fd5b6000828210156111ee576111ee6111c6565b500390565b600181815b8085111561122e578160001904821115611214576112146111c6565b8085161561122157918102915b93841c93908002906111f8565b509250929050565b600082611245575060016107a0565b81611252575060006107a0565b816001811461126857600281146112725761128e565b60019150506107a0565b60ff841115611283576112836111c6565b50506001821b6107a0565b5060208310610133831016604e8410600b84101617156112b1575081810a6107a0565b6112bb83836111f3565b80600019048211156112cf576112cf6111c6565b029392505050565b60006111a660ff841683611236565b6000816000190483118215151615611300576113006111c6565b500290565b60008261132257634e487b7160e01b600052601260045260246000fd5b500490565b634e487b7160e01b600052602160045260246000fd5b6000825161134f818460208701611137565b9190910192915050565b60006020828403121561136b57600080fd5b815180151581146111a657600080fd5b6001600160a01b038416815282151560208201526060604082018190526000906113a790830184611167565b95945050505050565b6000602082840312156113c257600080fd5b815160ff811681146111a657600080fdfea264697066735822122022a991297aa8ced3b9bcb722e823dc162722c84f77bfa479ed2426192551f21f64736f6c634300080d0033",
  "devdoc": {
    "author": "Alchemix Finance",
    "errors": {
      "ERC20CallFailed(address,bool,bytes)": [
        {
          "params": {
            "data": "The resulting data from the call. This is error data when the call was not a success. Otherwise,                this is malformed data when the call was a success.",
            "success": "If the call to the token was a success.",
            "target": "The target address."
          }
        }
      ],
      "IllegalState(string)": [
        {
          "params": {
            "message": "The error message."
          }
        }
      ],
      "Unauthorized(string)": [
        {
          "params": {
            "message": "The error message."
          }
        }
      ]
    },
    "kind": "dev",
    "methods": {
      "price()": {
        "returns": {
          "_0": "The price."
        }
      },
      "unwrap(uint256,address)": {
        "params": {
          "amount": "The amount of yield-tokens to redeem.",
          "recipient": "The recipient of the resulting underlying-tokens."
        },
        "returns": {
          "_0": "The amount of underlying tokens unwrapped to `recipient`."
        }
      },
      "wrap(uint256,address)": {
        "params": {
          "amount": "The amount of the underlying token to wrap.",
          "recipient": "The address which will receive the yield tokens."
        },
        "returns": {
          "_0": "The amount of yield tokens minted to `recipient`."
        }
      }
    },
    "stateVariables": {
      "token": {
        "return": "The address of the yield token.",
        "returns": {
          "_0": "The address of the yield token."
        }
      },
      "underlyingToken": {
        "return": "The address of the underlying token.",
        "returns": {
          "_0": "The address of the underlying token."
        }
      },
      "version": {
        "return": "The version.",
        "returns": {
          "_0": "The version."
        }
      }
    },
    "title": "FraxEthAdapter",
    "version": 1
  },
  "userdoc": {
    "errors": {
      "ERC20CallFailed(address,bool,bytes)": [
        {
          "notice": "An error used to indicate that a call to an ERC20 contract failed."
        }
      ],
      "IllegalState(string)": [
        {
          "notice": "An error used to indicate that a function has encountered an unrecoverable state."
        }
      ],
      "Unauthorized(string)": [
        {
          "notice": "An error used to indicate that a message sender tried to execute a privileged function."
        }
      ]
    },
    "kind": "user",
    "methods": {
      "price()": {
        "notice": "Gets the number of underlying tokens that a single whole yield token is redeemable         for."
      },
      "token()": {
        "notice": "Gets the address of the yield token that this adapter supports."
      },
      "underlyingToken()": {
        "notice": "Gets the address of the underlying token that the yield token wraps."
      },
      "unwrap(uint256,address)": {
        "notice": "Unwraps `amount` yield tokens into the underlying token."
      },
      "version()": {
        "notice": "Gets the current version."
      },
      "wrap(uint256,address)": {
        "notice": "Wraps `amount` underlying tokens into the yield token."
      }
    },
    "version": 1
  },
  "storageLayout": {
    "storage": [
      {
        "astId": 51350,
        "contract": "submodules/v2-foundry/src/adapters/frax/FraxEthAdapter.sol:FraxEthAdapter",
        "label": "_lockState",
        "offset": 0,
        "slot": "0",
        "type": "t_enum(State)51344"
      }
    ],
    "types": {
      "t_enum(State)51344": {
        "encoding": "inplace",
        "label": "enum MutexLock.State",
        "numberOfBytes": "1"
      }
    }
  }
}