{
  "address": "0x8eC81eB82488A754Ffcf21E7387F350e44854ab5",
  "abi": [
    {
      "inputs": [
        {
          "components": [
            {
              "internalType": "address",
              "name": "alchemist",
              "type": "address"
            },
            {
              "internalType": "address",
              "name": "token",
              "type": "address"
            },
            {
              "internalType": "address",
              "name": "underlyingToken",
              "type": "address"
            }
          ],
          "internalType": "struct InitializationParams",
          "name": "params",
          "type": "tuple"
        }
      ],
      "stateMutability": "nonpayable",
      "type": "constructor"
    },
    {
      "inputs": [
        {
          "internalType": "address",
          "name": "target",
          "type": "address"
        },
        {
          "internalType": "bool",
          "name": "success",
          "type": "bool"
        },
        {
          "internalType": "bytes",
          "name": "data",
          "type": "bytes"
        }
      ],
      "name": "ERC20CallFailed",
      "type": "error"
    },
    {
      "inputs": [
        {
          "internalType": "string",
          "name": "message",
          "type": "string"
        }
      ],
      "name": "IllegalState",
      "type": "error"
    },
    {
      "inputs": [
        {
          "internalType": "string",
          "name": "message",
          "type": "string"
        }
      ],
      "name": "Unauthorized",
      "type": "error"
    },
    {
      "inputs": [
        {
          "internalType": "string",
          "name": "message",
          "type": "string"
        }
      ],
      "name": "UnsupportedOperation",
      "type": "error"
    },
    {
      "inputs": [],
      "name": "alchemist",
      "outputs": [
        {
          "internalType": "address",
          "name": "",
          "type": "address"
        }
      ],
      "stateMutability": "view",
      "type": "function"
    },
    {
      "inputs": [],
      "name": "price",
      "outputs": [
        {
          "internalType": "uint256",
          "name": "",
          "type": "uint256"
        }
      ],
      "stateMutability": "view",
      "type": "function"
    },
    {
      "inputs": [],
      "name": "token",
      "outputs": [
        {
          "internalType": "address",
          "name": "",
          "type": "address"
        }
      ],
      "stateMutability": "view",
      "type": "function"
    },
    {
      "inputs": [],
      "name": "underlyingToken",
      "outputs": [
        {
          "internalType": "address",
          "name": "",
          "type": "address"
        }
      ],
      "stateMutability": "view",
      "type": "function"
    },
    {
      "inputs": [
        {
          "internalType": "uint256",
          "name": "amount",
          "type": "uint256"
        },
        {
          "internalType": "address",
          "name": "recipient",
          "type": "address"
        }
      ],
      "name": "unwrap",
      "outputs": [
        {
          "internalType": "uint256",
          "name": "",
          "type": "uint256"
        }
      ],
      "stateMutability": "nonpayable",
      "type": "function"
    },
    {
      "inputs": [],
      "name": "version",
      "outputs": [
        {
          "internalType": "string",
          "name": "",
          "type": "string"
        }
      ],
      "stateMutability": "view",
      "type": "function"
    },
    {
      "inputs": [
        {
          "internalType": "uint256",
          "name": "amount",
          "type": "uint256"
        },
        {
          "internalType": "address",
          "name": "recipient",
          "type": "address"
        }
      ],
      "name": "wrap",
      "outputs": [
        {
          "internalType": "uint256",
          "name": "",
          "type": "uint256"
        }
      ],
      "stateMutability": "nonpayable",
      "type": "function"
    },
    {
      "stateMutability": "payable",
      "type": "receive"
    }
  ],
  "transactionHash": "0xa7ef1614d2c1421fcb4d7fbfce5a8ec8dca8e000af3f44ff863a7da13ae574ad",
  "args": [
    {
      "alchemist": "0x062Bf725dC4cDF947aa79Ca2aaCCD4F385b13b5c",
      "token": "0xae78736Cd615f374D3085123A210448E74Fc6393",
      "underlyingToken": "0xC02aaA39b223FE8D0A0e5C4F27eAD9083C756Cc2"
    }
  ],
  "solcInputHash": "1d32ecf84869b21ba6f834c491cdb76a",
  "bytecode": "0x6000805460ff19166001908117909155610120604052600560e0819052640312e322e360dc1b61010090815262000037929162000092565b503480156200004557600080fd5b5060405162000fdd38038062000fdd833981016040819052620000689162000155565b80516001600160a01b039081166080526020820151811660a0526040909101511660c05262000212565b828054620000a090620001d6565b90600052602060002090601f016020900481019282620000c457600085556200010f565b82601f10620000df57805160ff19168380011785556200010f565b828001600101855582156200010f579182015b828111156200010f578251825591602001919060010190620000f2565b506200011d92915062000121565b5090565b5b808211156200011d576000815560010162000122565b80516001600160a01b03811681146200015057600080fd5b919050565b6000606082840312156200016857600080fd5b604051606081016001600160401b03811182821017156200019957634e487b7160e01b600052604160045260246000fd5b604052620001a78362000138565b8152620001b76020840162000138565b6020820152620001ca6040840162000138565b60408201529392505050565b600181811c90821680620001eb57607f821691505b6020821081036200020c57634e487b7160e01b600052602260045260246000fd5b50919050565b60805160a05160c051610d65620002786000396000818160840152818161018c015281816104cf01526105de01526000818160b8015281816102630152818161043f015261049f01526000818161021a0152818161029201526103dc0152610d656000f3fe6080604052600436106100745760003560e01c80637647691d1161004e5780637647691d146101e85780638de925f614610208578063a035b1fe1461023c578063fc0c546a1461025157600080fd5b806313bac820146101475780632495a5991461017a57806354fd4d50146101c657600080fd5b3661014257336001600160a01b037f000000000000000000000000000000000000000000000000000000000000000016148015906100db5750336001600160a01b037f00000000000000000000000000000000000000000000000000000000000000001614155b156101405760405163973d02cb60e01b815260206004820152602960248201527f5061796d656e7473206f6e6c79207065726d69747465642066726f6d2057455460448201526809040dee440e48aa8960bb1b60648201526084015b60405180910390fd5b005b600080fd5b34801561015357600080fd5b50610167610162366004610a54565b610285565b6040519081526020015b60405180910390f35b34801561018657600080fd5b506101ae7f000000000000000000000000000000000000000000000000000000000000000081565b6040516001600160a01b039091168152602001610171565b3480156101d257600080fd5b506101db610339565b6040516101719190610aec565b3480156101f457600080fd5b50610167610203366004610a54565b6103c7565b34801561021457600080fd5b506101ae7f000000000000000000000000000000000000000000000000000000000000000081565b34801561024857600080fd5b50610167610616565b34801561025d57600080fd5b506101ae7f000000000000000000000000000000000000000000000000000000000000000081565b6000336001600160a01b037f000000000000000000000000000000000000000000000000000000000000000016146102f05760405163973d02cb60e01b815260206004820152600d60248201526c139bdd08185b18da195b5a5cdd609a1b6044820152606401610137565b6040516339e7b60b60e21b815260206004820152601960248201527f5772617070696e67206973206e6f7420737570706f72746564000000000000006044820152606401610137565b6001805461034690610b06565b80601f016020809104026020016040519081016040528092919081815260200182805461037290610b06565b80156103bf5780601f10610394576101008083540402835291602001916103bf565b820191906000526020600020905b8154815290600101906020018083116103a257829003601f168201915b505050505081565b60006103d1610791565b336001600160a01b037f0000000000000000000000000000000000000000000000000000000000000000161461043a5760405163973d02cb60e01b815260206004820152600d60248201526c139bdd08185b18da195b5a5cdd609a1b6044820152606401610137565b6104667f0000000000000000000000000000000000000000000000000000000000000000333086610806565b6040805160c0810182527f1e19cf2d73a72ef1332c882f20534b6519be02760002000000000000000001128152600060208083018290527f00000000000000000000000000000000000000000000000000000000000000006001600160a01b03818116858701527f00000000000000000000000000000000000000000000000000000000000000001660608086019190915260808086018a90528651808501885285815260a0870152865190810187523080825293810185905295860192909252908401919091529091906105509073ba12222222228d8ba445958a75a0704d566bf2c887610906565b6040516352bbbe2960e01b815260009073ba12222222228d8ba445958a75a0704d566bf2c8906352bbbe299061059490869086908690637735940090600401610b56565b6020604051808303816000875af11580156105b3573d6000803e3d6000fd5b505050506040513d601f19601f820116820180604052508101906105d79190610c34565b90506106047f00000000000000000000000000000000000000000000000000000000000000008683610a0e565b92505050610610610a41565b92915050565b600080600080600073536218f9e9eb48863970252233c8f271f554c2d06001600160a01b031663feaf968c6040518163ffffffff1660e01b815260040160a060405180830381865afa158015610670573d6000803e3d6000fd5b505050506040513d601f19601f820116820180604052508101906106949190610c6c565b9450945050935093508369ffffffffffffffffffff168169ffffffffffffffffffff1610156106fd5760405162461bcd60e51b8152602060048201526015602482015274436861696e6c696e6b205072696365205374616c6560581b6044820152606401610137565b600083136107455760405162461bcd60e51b815260206004820152601560248201527421b430b4b73634b7359026b0b6333ab731ba34b7b760591b6044820152606401610137565b816000036107885760405162461bcd60e51b815260206004820152601060248201526f125b98dbdb5c1b195d19481c9bdd5b9960821b6044820152606401610137565b50909392505050565b600160005460ff1660028111156107aa576107aa610b40565b146107ef5760405163c50656df60e01b8152602060048201526014602482015273131bd8dac8185b1c9958591e4818db185a5b595960621b6044820152606401610137565b600080546002919060ff19166001835b0217905550565b604080516001600160a01b0385811660248301528481166044830152606480830185905283518084039091018152608490920183526020820180516001600160e01b03166323b872dd60e01b179052915160009283929088169161086a9190610cbc565b6000604051808303816000865af19150503d80600081146108a7576040519150601f19603f3d011682016040523d82523d6000602084013e6108ac565b606091505b50915091508115806108da57508051158015906108da5750808060200190518101906108d89190610cd8565b155b156108fe5785828260405163e7e40b5b60e01b815260040161013793929190610cfa565b505050505050565b6040516001600160a01b03838116602483015260448201839052600091829186169063095ea7b360e01b906064015b60408051601f198184030181529181526020820180516001600160e01b03166001600160e01b03199094169390931790925290516109739190610cbc565b6000604051808303816000865af19150503d80600081146109b0576040519150601f19603f3d011682016040523d82523d6000602084013e6109b5565b606091505b50915091508115806109e357508051158015906109e35750808060200190518101906109e19190610cd8565b155b15610a075784828260405163e7e40b5b60e01b815260040161013793929190610cfa565b5050505050565b6040516001600160a01b03838116602483015260448201839052600091829186169063a9059cbb60e01b90606401610935565b600080546001919060ff191682806107ff565b60008060408385031215610a6757600080fd5b8235915060208301356001600160a01b0381168114610a8557600080fd5b809150509250929050565b60005b83811015610aab578181015183820152602001610a93565b83811115610aba576000848401525b50505050565b60008151808452610ad8816020860160208601610a90565b601f01601f19169290920160200192915050565b602081526000610aff6020830184610ac0565b9392505050565b600181811c90821680610b1a57607f821691505b602082108103610b3a57634e487b7160e01b600052602260045260246000fd5b50919050565b634e487b7160e01b600052602160045260246000fd5b60e08152845160e08201526000602086015160028110610b8657634e487b7160e01b600052602160045260246000fd5b61010083015260408601516001600160a01b03166101208301526060860151610bbb6101408401826001600160a01b03169052565b50608086015161016083015260a086015160c0610180840152610be26101a0840182610ac0565b915050610c22602083018680516001600160a01b039081168352602080830151151590840152604080830151909116908301526060908101511515910152565b60a082019390935260c0015292915050565b600060208284031215610c4657600080fd5b5051919050565b805169ffffffffffffffffffff81168114610c6757600080fd5b919050565b600080600080600060a08688031215610c8457600080fd5b610c8d86610c4d565b9450602086015193506040860151925060608601519150610cb060808701610c4d565b90509295509295909350565b60008251610cce818460208701610a90565b9190910192915050565b600060208284031215610cea57600080fd5b81518015158114610aff57600080fd5b6001600160a01b03841681528215156020820152606060408201819052600090610d2690830184610ac0565b9594505050505056fea26469706673582212204f7a3133dfa0d7e949c8e0418052b3f15caaf00eac19871f9c5665983a2bb4b064736f6c634300080d0033",
  "devdoc": {
    "errors": {
      "ERC20CallFailed(address,bool,bytes)": [
        {
          "params": {
            "data": "The resulting data from the call. This is error data when the call was not a                success. Otherwise, this is malformed data when the call was a success.",
            "success": "If the call to the token was a success.",
            "target": "The target address."
          }
        }
      ],
      "IllegalState(string)": [
        {
          "params": {
            "message": "The error message."
          }
        }
      ],
      "Unauthorized(string)": [
        {
          "params": {
            "message": "The error message."
          }
        }
      ],
      "UnsupportedOperation(string)": [
        {
          "params": {
            "message": "The error message."
          }
        }
      ]
    },
    "kind": "dev",
    "methods": {
      "price()": {
        "returns": {
          "_0": "The price."
        }
      },
      "unwrap(uint256,address)": {
        "params": {
          "amount": "The amount of yield-tokens to redeem.",
          "recipient": "The recipient of the resulting underlying-tokens."
        },
        "returns": {
          "_0": "The amount of underlying tokens unwrapped to `recipient`."
        }
      },
      "wrap(uint256,address)": {
        "params": {
          "amount": "The amount of the underlying token to wrap.",
          "recipient": "The address which will receive the yield tokens."
        },
        "returns": {
          "_0": "The amount of yield tokens minted to `recipient`."
        }
      }
    },
    "stateVariables": {
      "token": {
        "return": "The address of the yield token.",
        "returns": {
          "_0": "The address of the yield token."
        }
      },
      "underlyingToken": {
        "return": "The address of the underlying token.",
        "returns": {
          "_0": "The address of the underlying token."
        }
      },
      "version": {
        "return": "The version.",
        "returns": {
          "_0": "The version."
        }
      }
    },
    "version": 1
  },
  "userdoc": {
    "errors": {
      "ERC20CallFailed(address,bool,bytes)": [
        {
          "notice": "An error used to indicate that a call to an ERC20 contract failed."
        }
      ],
      "IllegalState(string)": [
        {
          "notice": "An error used to indicate that a function has encountered an unrecoverable state."
        }
      ],
      "Unauthorized(string)": [
        {
          "notice": "An error used to indicate that a message sender tried to execute a privileged function."
        }
      ],
      "UnsupportedOperation(string)": [
        {
          "notice": "An error used to indicate that an operation is unsupported."
        }
      ]
    },
    "kind": "user",
    "methods": {
      "price()": {
        "notice": "Gets the number of underlying tokens that a single whole yield token is redeemable         for."
      },
      "token()": {
        "notice": "Gets the address of the yield token that this adapter supports."
      },
      "underlyingToken()": {
        "notice": "Gets the address of the underlying token that the yield token wraps."
      },
      "unwrap(uint256,address)": {
        "notice": "Unwraps `amount` yield tokens into the underlying token."
      },
      "version()": {
        "notice": "Gets the current version."
      },
      "wrap(uint256,address)": {
        "notice": "Wraps `amount` underlying tokens into the yield token."
      }
    },
    "version": 1
  },
  "storageLayout": {
    "storage": [
      {
        "astId": 51061,
        "contract": "submodules/v2-foundry/src/adapters/rocket/RETHAdapterV1.sol:RETHAdapterV1",
        "label": "_lockState",
        "offset": 0,
        "slot": "0",
        "type": "t_enum(State)51055"
      },
      {
        "astId": 50188,
        "contract": "submodules/v2-foundry/src/adapters/rocket/RETHAdapterV1.sol:RETHAdapterV1",
        "label": "version",
        "offset": 0,
        "slot": "1",
        "type": "t_string_storage"
      }
    ],
    "types": {
      "t_enum(State)51055": {
        "encoding": "inplace",
        "label": "enum MutexLock.State",
        "numberOfBytes": "1"
      },
      "t_string_storage": {
        "encoding": "bytes",
        "label": "string",
        "numberOfBytes": "32"
      }
    }
  }
}