{
  "address": "0x58846EFaDc0819d6F1D45a71D36b48A2ea79fcC5",
  "abi": [
    {
      "inputs": [
        {
          "components": [
            {
              "internalType": "address",
              "name": "alchemist",
              "type": "address"
            },
            {
              "internalType": "address",
              "name": "token",
              "type": "address"
            },
            {
              "internalType": "address",
              "name": "parentToken",
              "type": "address"
            },
            {
              "internalType": "address",
              "name": "underlyingToken",
              "type": "address"
            },
            {
              "internalType": "address",
              "name": "curvePool",
              "type": "address"
            },
            {
              "internalType": "address",
              "name": "oracleStethUsd",
              "type": "address"
            },
            {
              "internalType": "address",
              "name": "oracleEthUsd",
              "type": "address"
            },
            {
              "internalType": "uint256",
              "name": "ethPoolIndex",
              "type": "uint256"
            },
            {
              "internalType": "uint256",
              "name": "stEthPoolIndex",
              "type": "uint256"
            },
            {
              "internalType": "address",
              "name": "referral",
              "type": "address"
            }
          ],
          "internalType": "struct InitializationParams",
          "name": "params",
          "type": "tuple"
        }
      ],
      "stateMutability": "nonpayable",
      "type": "constructor"
    },
    {
      "inputs": [
        {
          "internalType": "address",
          "name": "target",
          "type": "address"
        },
        {
          "internalType": "bool",
          "name": "success",
          "type": "bool"
        },
        {
          "internalType": "bytes",
          "name": "data",
          "type": "bytes"
        }
      ],
      "name": "ERC20CallFailed",
      "type": "error"
    },
    {
      "inputs": [
        {
          "internalType": "string",
          "name": "message",
          "type": "string"
        }
      ],
      "name": "IllegalArgument",
      "type": "error"
    },
    {
      "inputs": [
        {
          "internalType": "string",
          "name": "message",
          "type": "string"
        }
      ],
      "name": "IllegalState",
      "type": "error"
    },
    {
      "inputs": [
        {
          "internalType": "string",
          "name": "message",
          "type": "string"
        }
      ],
      "name": "Unauthorized",
      "type": "error"
    },
    {
      "inputs": [],
      "name": "alchemist",
      "outputs": [
        {
          "internalType": "address",
          "name": "",
          "type": "address"
        }
      ],
      "stateMutability": "view",
      "type": "function"
    },
    {
      "inputs": [],
      "name": "curvePool",
      "outputs": [
        {
          "internalType": "address",
          "name": "",
          "type": "address"
        }
      ],
      "stateMutability": "view",
      "type": "function"
    },
    {
      "inputs": [],
      "name": "ethPoolIndex",
      "outputs": [
        {
          "internalType": "uint256",
          "name": "",
          "type": "uint256"
        }
      ],
      "stateMutability": "view",
      "type": "function"
    },
    {
      "inputs": [],
      "name": "oracleEthUsd",
      "outputs": [
        {
          "internalType": "address",
          "name": "",
          "type": "address"
        }
      ],
      "stateMutability": "view",
      "type": "function"
    },
    {
      "inputs": [],
      "name": "oracleStethUsd",
      "outputs": [
        {
          "internalType": "address",
          "name": "",
          "type": "address"
        }
      ],
      "stateMutability": "view",
      "type": "function"
    },
    {
      "inputs": [],
      "name": "parentToken",
      "outputs": [
        {
          "internalType": "address",
          "name": "",
          "type": "address"
        }
      ],
      "stateMutability": "view",
      "type": "function"
    },
    {
      "inputs": [],
      "name": "price",
      "outputs": [
        {
          "internalType": "uint256",
          "name": "",
          "type": "uint256"
        }
      ],
      "stateMutability": "view",
      "type": "function"
    },
    {
      "inputs": [],
      "name": "referral",
      "outputs": [
        {
          "internalType": "address",
          "name": "",
          "type": "address"
        }
      ],
      "stateMutability": "view",
      "type": "function"
    },
    {
      "inputs": [],
      "name": "stEthPoolIndex",
      "outputs": [
        {
          "internalType": "uint256",
          "name": "",
          "type": "uint256"
        }
      ],
      "stateMutability": "view",
      "type": "function"
    },
    {
      "inputs": [],
      "name": "token",
      "outputs": [
        {
          "internalType": "address",
          "name": "",
          "type": "address"
        }
      ],
      "stateMutability": "view",
      "type": "function"
    },
    {
      "inputs": [],
      "name": "underlyingToken",
      "outputs": [
        {
          "internalType": "address",
          "name": "",
          "type": "address"
        }
      ],
      "stateMutability": "view",
      "type": "function"
    },
    {
      "inputs": [
        {
          "internalType": "uint256",
          "name": "amount",
          "type": "uint256"
        },
        {
          "internalType": "address",
          "name": "recipient",
          "type": "address"
        }
      ],
      "name": "unwrap",
      "outputs": [
        {
          "internalType": "uint256",
          "name": "",
          "type": "uint256"
        }
      ],
      "stateMutability": "nonpayable",
      "type": "function"
    },
    {
      "inputs": [],
      "name": "version",
      "outputs": [
        {
          "internalType": "string",
          "name": "",
          "type": "string"
        }
      ],
      "stateMutability": "view",
      "type": "function"
    },
    {
      "inputs": [
        {
          "internalType": "uint256",
          "name": "amount",
          "type": "uint256"
        },
        {
          "internalType": "address",
          "name": "recipient",
          "type": "address"
        }
      ],
      "name": "wrap",
      "outputs": [
        {
          "internalType": "uint256",
          "name": "",
          "type": "uint256"
        }
      ],
      "stateMutability": "nonpayable",
      "type": "function"
    },
    {
      "stateMutability": "payable",
      "type": "receive"
    }
  ],
  "transactionHash": "0x8e0cdea823cf7020a8d25310e3435601e89a4eb5ba30eeec156f4148787662a4",
  "args": [
    {
      "alchemist": "0x062Bf725dC4cDF947aa79Ca2aaCCD4F385b13b5c",
      "token": "0x7f39C581F595B53c5cb19bD0b3f8dA6c935E2Ca0",
      "parentToken": "0xae7ab96520DE3A18E5e111B5EaAb095312D7fE84",
      "underlyingToken": "0xC02aaA39b223FE8D0A0e5C4F27eAD9083C756Cc2",
      "curvePool": "0xDC24316b9AE028F1497c275EB9192a3Ea0f67022",
      "oracleStethUsd": "0xCfE54B5cD566aB89272946F602D76Ea879CAb4a8",
      "oracleEthUsd": "0x5f4eC3Df9cbd43714FE2740f5E3616155c5b8419",
      "ethPoolIndex": 0,
      "stEthPoolIndex": 1,
      "referral": "0x0000000000000000000000000000000000000000"
    }
  ],
  "solcInputHash": "2c93b80099c17e3c8d12eab06501c0ff",
  "bytecode": "0x6000805460ff1916600190811790915561020060405260056101c0819052640312e312e360dc1b6101e0908152620000389291620002b0565b503480156200004657600080fd5b5060405162001c1538038062001c158339810160408190526200006991620003ab565b80516001600160a01b0390811660809081526020830151821660a0908152604080850151841660c09081526060860151851660e09081529386018051861661010090815293870151861661012090815291870151861661014052938601805161016052928601516101805285015184166101a05291519051915163c661065760e01b815292169163c661065791620001079160040190815260200190565b602060405180830381865afa15801562000125573d6000803e3d6000fd5b505050506040513d601f19601f820116820180604052508101906200014b919062000479565b6001600160a01b031673eeeeeeeeeeeeeeeeeeeeeeeeeeeeeeeeeeeeeeee6001600160a01b031614620001c6576040516354a1577760e11b815260206004820152601d60248201527f437572766520706f6f6c2045544820746f6b656e206d69736d6174636800000060448201526064015b60405180910390fd5b80604001516001600160a01b031681608001516001600160a01b031663c66106578361010001516040518263ffffffff1660e01b81526004016200020c91815260200190565b602060405180830381865afa1580156200022a573d6000803e3d6000fd5b505050506040513d601f19601f8201168201806040525081019062000250919062000479565b6001600160a01b031614620002a9576040516354a1577760e11b815260206004820152601f60248201527f437572766520706f6f6c20737445544820746f6b656e206d69736d61746368006044820152606401620001bd565b50620004da565b828054620002be906200049e565b90600052602060002090601f016020900481019282620002e257600085556200032d565b82601f10620002fd57805160ff19168380011785556200032d565b828001600101855582156200032d579182015b828111156200032d57825182559160200191906001019062000310565b506200033b9291506200033f565b5090565b5b808211156200033b576000815560010162000340565b60405161014081016001600160401b03811182821017156200038857634e487b7160e01b600052604160045260246000fd5b60405290565b80516001600160a01b0381168114620003a657600080fd5b919050565b60006101408284031215620003bf57600080fd5b620003c962000356565b620003d4836200038e565b8152620003e4602084016200038e565b6020820152620003f7604084016200038e565b60408201526200040a606084016200038e565b60608201526200041d608084016200038e565b60808201526200043060a084016200038e565b60a08201526200044360c084016200038e565b60c082015260e083015160e08201526101008084015181830152506101206200046e8185016200038e565b908201529392505050565b6000602082840312156200048c57600080fd5b62000497826200038e565b9392505050565b600181811c90821680620004b357607f821691505b602082108103620004d457634e487b7160e01b600052602260045260246000fd5b50919050565b60805160a05160c05160e05161010051610120516101405161016051610180516101a0516115f562000620600039600081816101ff015261061f0152600081816103c50152610ba901526000818161040e0152610bd40152600081816102b30152610d340152600081816103090152610db60152600081816101250152818161024b01528181610b750152610c0d01526000818160f10152818161027f015281816104dc0152818161051901528181610c860152610cfd01526000818161035d015281816105940152818161064a015281816106de0152818161075a015281816109b201528181610acc0152610b540152600081816104420152818161077b015281816107b9015281816108350152818161097301528181610a3e01528181610e380152610e6a01526000818161039101528181610479015261091001526115f56000f3fe6080604052600436106100e15760003560e01c80637647691d1161007f5780638f873bde116100595780638f873bde146103b3578063a035b1fe146103e7578063e0c88bf9146103fc578063fc0c546a1461043057600080fd5b80637647691d1461032b57806380a540011461034b5780638de925f61461037f57600080fd5b80632495a599116100bb5780632495a5991461026d57806351251519146102a157806354fd4d50146102d557806361d7cf3e146102f757600080fd5b806313bac820146101ba5780631441a5a9146101ed578063218751b21461023957600080fd5b366101b557336001600160a01b037f000000000000000000000000000000000000000000000000000000000000000016148015906101485750336001600160a01b037f00000000000000000000000000000000000000000000000000000000000000001614155b156101b35760405163973d02cb60e01b815260206004820152602f60248201527f5061796d656e7473206f6e6c79207065726d69747465642066726f6d2057455460448201526e12081bdc8818dd5c9d99481c1bdbdb608a1b60648201526084015b60405180910390fd5b005b600080fd5b3480156101c657600080fd5b506101da6101d53660046112ad565b610464565b6040519081526020015b60405180910390f35b3480156101f957600080fd5b506102217f000000000000000000000000000000000000000000000000000000000000000081565b6040516001600160a01b0390911681526020016101e4565b34801561024557600080fd5b506102217f000000000000000000000000000000000000000000000000000000000000000081565b34801561027957600080fd5b506102217f000000000000000000000000000000000000000000000000000000000000000081565b3480156102ad57600080fd5b506102217f000000000000000000000000000000000000000000000000000000000000000081565b3480156102e157600080fd5b506102ea61086d565b6040516101e49190611345565b34801561030357600080fd5b506102217f000000000000000000000000000000000000000000000000000000000000000081565b34801561033757600080fd5b506101da6103463660046112ad565b6108fb565b34801561035757600080fd5b506102217f000000000000000000000000000000000000000000000000000000000000000081565b34801561038b57600080fd5b506102217f000000000000000000000000000000000000000000000000000000000000000081565b3480156103bf57600080fd5b506101da7f000000000000000000000000000000000000000000000000000000000000000081565b3480156103f357600080fd5b506101da610d30565b34801561040857600080fd5b506101da7f000000000000000000000000000000000000000000000000000000000000000081565b34801561043c57600080fd5b506102217f000000000000000000000000000000000000000000000000000000000000000081565b600061046e610f11565b336001600160a01b037f000000000000000000000000000000000000000000000000000000000000000016146104d75760405163973d02cb60e01b815260206004820152600d60248201526c139bdd08185b18da195b5a5cdd609a1b60448201526064016101aa565b6105037f0000000000000000000000000000000000000000000000000000000000000000333086610f86565b604051632e1a7d4d60e01b8152600481018490527f00000000000000000000000000000000000000000000000000000000000000006001600160a01b031690632e1a7d4d90602401600060405180830381600087803b15801561056557600080fd5b505af1158015610579573d6000803e3d6000fd5b50506040516370a0823160e01b8152306004820152600092507f00000000000000000000000000000000000000000000000000000000000000006001600160a01b031691506370a0823190602401602060405180830381865afa1580156105e4573d6000803e3d6000fd5b505050506040513d601f19601f82011682018060405250810190610608919061135f565b60405163a1903eab60e01b81526001600160a01b037f0000000000000000000000000000000000000000000000000000000000000000811660048301529192507f00000000000000000000000000000000000000000000000000000000000000009091169063a1903eab90869060240160206040518083038185885af1158015610696573d6000803e3d6000fd5b50505050506040513d601f19601f820116820180604052508101906106bb919061135f565b506040516370a0823160e01b815230600482015260009082906001600160a01b037f000000000000000000000000000000000000000000000000000000000000000016906370a0823190602401602060405180830381865afa158015610725573d6000803e3d6000fd5b505050506040513d601f19601f82011682018060405250810190610749919061135f565b610753919061138e565b90506107a07f00000000000000000000000000000000000000000000000000000000000000007f000000000000000000000000000000000000000000000000000000000000000083611086565b604051630ea598cb60e41b8152600481018290526000907f00000000000000000000000000000000000000000000000000000000000000006001600160a01b03169063ea598cb0906024016020604051808303816000875af115801561080a573d6000803e3d6000fd5b505050506040513d601f19601f8201168201806040525081019061082e919061135f565b905061085b7f0000000000000000000000000000000000000000000000000000000000000000868361118e565b925050506108676111c1565b92915050565b6001805461087a906113a5565b80601f01602080910402602001604051908101604052809291908181526020018280546108a6906113a5565b80156108f35780601f106108c8576101008083540402835291602001916108f3565b820191906000526020600020905b8154815290600101906020018083116108d657829003601f168201915b505050505081565b6000610905610f11565b336001600160a01b037f0000000000000000000000000000000000000000000000000000000000000000161461096e5760405163973d02cb60e01b815260206004820152600d60248201526c139bdd08185b18da195b5a5cdd609a1b60448201526064016101aa565b61099a7f0000000000000000000000000000000000000000000000000000000000000000333086610f86565b6040516370a0823160e01b81523060048201526000907f00000000000000000000000000000000000000000000000000000000000000006001600160a01b0316906370a0823190602401602060405180830381865afa158015610a01573d6000803e3d6000fd5b505050506040513d601f19601f82011682018060405250810190610a25919061135f565b604051636f074d1f60e11b8152600481018690529091507f00000000000000000000000000000000000000000000000000000000000000006001600160a01b03169063de0e9a3e906024016020604051808303816000875af1158015610a8f573d6000803e3d6000fd5b505050506040513d601f19601f82011682018060405250810190610ab3919061135f565b506040516370a0823160e01b81523060048201526000907f00000000000000000000000000000000000000000000000000000000000000006001600160a01b0316906370a0823190602401602060405180830381865afa158015610b1b573d6000803e3d6000fd5b505050506040513d601f19601f82011682018060405250810190610b3f919061135f565b90506000610b4d838361138e565b9050610b9a7f00000000000000000000000000000000000000000000000000000000000000007f000000000000000000000000000000000000000000000000000000000000000083611086565b604051630f7c084960e21b81527f0000000000000000000000000000000000000000000000000000000000000000600f90810b60048301527f0000000000000000000000000000000000000000000000000000000000000000900b602482015260448101829052600060648201819052907f00000000000000000000000000000000000000000000000000000000000000006001600160a01b031690633df02124906084016020604051808303816000875af1158015610c5e573d6000803e3d6000fd5b505050506040513d601f19601f82011682018060405250810190610c82919061135f565b90507f00000000000000000000000000000000000000000000000000000000000000006001600160a01b031663d0e30db0826040518263ffffffff1660e01b81526004016000604051808303818588803b158015610cdf57600080fd5b505af1158015610cf3573d6000803e3d6000fd5b5050505050610d237f0000000000000000000000000000000000000000000000000000000000000000878361118e565b93505050506108676111c1565b60007f00000000000000000000000000000000000000000000000000000000000000006001600160a01b03166350d25bcd6040518163ffffffff1660e01b8152600401602060405180830381865afa158015610d90573d6000803e3d6000fd5b505050506040513d601f19601f82011682018060405250810190610db4919061135f565b7f00000000000000000000000000000000000000000000000000000000000000006001600160a01b03166350d25bcd6040518163ffffffff1660e01b8152600401602060405180830381865afa158015610e12573d6000803e3d6000fd5b505050506040513d601f19601f82011682018060405250810190610e36919061135f565b7f00000000000000000000000000000000000000000000000000000000000000006001600160a01b031663bb2952fc610e8e7f00000000000000000000000000000000000000000000000000000000000000006111d4565b610e9990600a6114c3565b6040518263ffffffff1660e01b8152600401610eb791815260200190565b602060405180830381865afa158015610ed4573d6000803e3d6000fd5b505050506040513d601f19601f82011682018060405250810190610ef8919061135f565b610f0291906114d2565b610f0c91906114f1565b905090565b600160005460ff166002811115610f2a57610f2a611513565b14610f6f5760405163c50656df60e01b8152602060048201526014602482015273131bd8dac8185b1c9958591e4818db185a5b595960621b60448201526064016101aa565b600080546002919060ff19166001835b0217905550565b604080516001600160a01b0385811660248301528481166044830152606480830185905283518084039091018152608490920183526020820180516001600160e01b03166323b872dd60e01b1790529151600092839290881691610fea9190611529565b6000604051808303816000865af19150503d8060008114611027576040519150601f19603f3d011682016040523d82523d6000602084013e61102c565b606091505b509150915081158061105a575080511580159061105a5750808060200190518101906110589190611545565b155b1561107e5785828260405163e7e40b5b60e01b81526004016101aa93929190611567565b505050505050565b6040516001600160a01b03838116602483015260448201839052600091829186169063095ea7b360e01b906064015b60408051601f198184030181529181526020820180516001600160e01b03166001600160e01b03199094169390931790925290516110f39190611529565b6000604051808303816000865af19150503d8060008114611130576040519150601f19603f3d011682016040523d82523d6000602084013e611135565b606091505b509150915081158061116357508051158015906111635750808060200190518101906111619190611545565b155b156111875784828260405163e7e40b5b60e01b81526004016101aa93929190611567565b5050505050565b6040516001600160a01b03838116602483015260448201839052600091829186169063a9059cbb60e01b906064016110b5565b600080546001919060ff19168280610f7f565b60408051600481526024810182526020810180516001600160e01b031663313ce56760e01b1790529051600091829182916001600160a01b0386169161121a9190611529565b600060405180830381855afa9150503d8060008114611255576040519150601f19603f3d011682016040523d82523d6000602084013e61125a565b606091505b509150915081158061126d575060208151105b156112915783828260405163e7e40b5b60e01b81526004016101aa93929190611567565b808060200190518101906112a5919061159c565b949350505050565b600080604083850312156112c057600080fd5b8235915060208301356001600160a01b03811681146112de57600080fd5b809150509250929050565b60005b838110156113045781810151838201526020016112ec565b83811115611313576000848401525b50505050565b600081518084526113318160208601602086016112e9565b601f01601f19169290920160200192915050565b6020815260006113586020830184611319565b9392505050565b60006020828403121561137157600080fd5b5051919050565b634e487b7160e01b600052601160045260246000fd5b6000828210156113a0576113a0611378565b500390565b600181811c908216806113b957607f821691505b6020821081036113d957634e487b7160e01b600052602260045260246000fd5b50919050565b600181815b8085111561141a57816000190482111561140057611400611378565b8085161561140d57918102915b93841c93908002906113e4565b509250929050565b60008261143157506001610867565b8161143e57506000610867565b8160018114611454576002811461145e5761147a565b6001915050610867565b60ff84111561146f5761146f611378565b50506001821b610867565b5060208310610133831016604e8410600b841016171561149d575081810a610867565b6114a783836113df565b80600019048211156114bb576114bb611378565b029392505050565b600061135860ff841683611422565b60008160001904831182151516156114ec576114ec611378565b500290565b60008261150e57634e487b7160e01b600052601260045260246000fd5b500490565b634e487b7160e01b600052602160045260246000fd5b6000825161153b8184602087016112e9565b9190910192915050565b60006020828403121561155757600080fd5b8151801515811461135857600080fd5b6001600160a01b0384168152821515602082015260606040820181905260009061159390830184611319565b95945050505050565b6000602082840312156115ae57600080fd5b815160ff8116811461135857600080fdfea2646970667358221220c34528f5db4aae8a647bf62dbb6eed5f8e0d64e07c5314c14a6443c9b4c1b60164736f6c634300080d0033",
  "devdoc": {
    "errors": {
      "ERC20CallFailed(address,bool,bytes)": [
        {
          "params": {
            "data": "The resulting data from the call. This is error data when the call was not a                success. Otherwise, this is malformed data when the call was a success.",
            "success": "If the call to the token was a success.",
            "target": "The target address."
          }
        }
      ],
      "IllegalArgument(string)": [
        {
          "params": {
            "message": "The error message."
          }
        }
      ],
      "IllegalState(string)": [
        {
          "params": {
            "message": "The error message."
          }
        }
      ],
      "Unauthorized(string)": [
        {
          "params": {
            "message": "The error message."
          }
        }
      ]
    },
    "kind": "dev",
    "methods": {
      "price()": {
        "returns": {
          "_0": "The price."
        }
      },
      "unwrap(uint256,address)": {
        "params": {
          "amount": "The amount of yield-tokens to redeem.",
          "recipient": "The recipient of the resulting underlying-tokens."
        },
        "returns": {
          "_0": "The amount of underlying tokens unwrapped to `recipient`."
        }
      },
      "wrap(uint256,address)": {
        "params": {
          "amount": "The amount of the underlying token to wrap.",
          "recipient": "The address which will receive the yield tokens."
        },
        "returns": {
          "_0": "The amount of yield tokens minted to `recipient`."
        }
      }
    },
    "stateVariables": {
      "token": {
        "return": "The address of the yield token.",
        "returns": {
          "_0": "The address of the yield token."
        }
      },
      "underlyingToken": {
        "return": "The address of the underlying token.",
        "returns": {
          "_0": "The address of the underlying token."
        }
      },
      "version": {
        "return": "The version.",
        "returns": {
          "_0": "The version."
        }
      }
    },
    "version": 1
  },
  "userdoc": {
    "errors": {
      "ERC20CallFailed(address,bool,bytes)": [
        {
          "notice": "An error used to indicate that a call to an ERC20 contract failed."
        }
      ],
      "IllegalArgument(string)": [
        {
          "notice": "An error used to indicate that an argument passed to a function is illegal or         inappropriate."
        }
      ],
      "IllegalState(string)": [
        {
          "notice": "An error used to indicate that a function has encountered an unrecoverable state."
        }
      ],
      "Unauthorized(string)": [
        {
          "notice": "An error used to indicate that a message sender tried to execute a privileged function."
        }
      ]
    },
    "kind": "user",
    "methods": {
      "price()": {
        "notice": "Gets the number of underlying tokens that a single whole yield token is redeemable         for."
      },
      "token()": {
        "notice": "Gets the address of the yield token that this adapter supports."
      },
      "underlyingToken()": {
        "notice": "Gets the address of the underlying token that the yield token wraps."
      },
      "unwrap(uint256,address)": {
        "notice": "Unwraps `amount` yield tokens into the underlying token."
      },
      "version()": {
        "notice": "Gets the current version."
      },
      "wrap(uint256,address)": {
        "notice": "Wraps `amount` underlying tokens into the yield token."
      }
    },
    "version": 1
  },
  "storageLayout": {
    "storage": [
      {
        "astId": 50950,
        "contract": "submodules/v2-foundry/src/adapters/lido/WstETHAdapterV1.sol:WstETHAdapterV1",
        "label": "_lockState",
        "offset": 0,
        "slot": "0",
        "type": "t_enum(State)50944"
      },
      {
        "astId": 49632,
        "contract": "submodules/v2-foundry/src/adapters/lido/WstETHAdapterV1.sol:WstETHAdapterV1",
        "label": "version",
        "offset": 0,
        "slot": "1",
        "type": "t_string_storage"
      }
    ],
    "types": {
      "t_enum(State)50944": {
        "encoding": "inplace",
        "label": "enum MutexLock.State",
        "numberOfBytes": "1"
      },
      "t_string_storage": {
        "encoding": "bytes",
        "label": "string",
        "numberOfBytes": "32"
      }
    }
  }
}