{
  "address": "0xe10Fff987d68272A53c053e5d7D5F630F15Fe3AC",
  "abi": [
    {
      "inputs": [
        {
          "components": [
            {
              "internalType": "address",
              "name": "alchemist",
              "type": "address"
            },
            {
              "internalType": "address",
              "name": "debtToken",
              "type": "address"
            },
            {
              "internalType": "address",
              "name": "rewardRouter",
              "type": "address"
            },
            {
              "internalType": "address",
              "name": "rewardToken",
              "type": "address"
            },
            {
              "internalType": "address",
              "name": "swapRouter",
              "type": "address"
            }
          ],
          "internalType": "struct InitializationParams",
          "name": "params",
          "type": "tuple"
        }
      ],
      "stateMutability": "nonpayable",
      "type": "constructor"
    },
    {
      "inputs": [
        {
          "internalType": "address",
          "name": "target",
          "type": "address"
        },
        {
          "internalType": "bool",
          "name": "success",
          "type": "bool"
        },
        {
          "internalType": "bytes",
          "name": "data",
          "type": "bytes"
        }
      ],
      "name": "ERC20CallFailed",
      "type": "error"
    },
    {
      "inputs": [
        {
          "internalType": "string",
          "name": "message",
          "type": "string"
        }
      ],
      "name": "IllegalState",
      "type": "error"
    },
    {
      "anonymous": false,
      "inputs": [
        {
          "indexed": true,
          "internalType": "address",
          "name": "previousOwner",
          "type": "address"
        },
        {
          "indexed": true,
          "internalType": "address",
          "name": "newOwner",
          "type": "address"
        }
      ],
      "name": "OwnershipTransferred",
      "type": "event"
    },
    {
      "inputs": [],
      "name": "alchemist",
      "outputs": [
        {
          "internalType": "address",
          "name": "",
          "type": "address"
        }
      ],
      "stateMutability": "view",
      "type": "function"
    },
    {
      "inputs": [
        {
          "internalType": "address",
          "name": "token",
          "type": "address"
        },
        {
          "internalType": "uint256",
          "name": "minimumAmountOut",
          "type": "uint256"
        }
      ],
      "name": "claimAndDonateRewards",
      "outputs": [
        {
          "internalType": "uint256",
          "name": "",
          "type": "uint256"
        }
      ],
      "stateMutability": "nonpayable",
      "type": "function"
    },
    {
      "inputs": [],
      "name": "debtToken",
      "outputs": [
        {
          "internalType": "address",
          "name": "",
          "type": "address"
        }
      ],
      "stateMutability": "view",
      "type": "function"
    },
    {
      "inputs": [],
      "name": "getExpectedExchange",
      "outputs": [
        {
          "internalType": "uint256",
          "name": "",
          "type": "uint256"
        }
      ],
      "stateMutability": "nonpayable",
      "type": "function"
    },
    {
      "inputs": [],
      "name": "owner",
      "outputs": [
        {
          "internalType": "address",
          "name": "",
          "type": "address"
        }
      ],
      "stateMutability": "view",
      "type": "function"
    },
    {
      "inputs": [],
      "name": "renounceOwnership",
      "outputs": [],
      "stateMutability": "nonpayable",
      "type": "function"
    },
    {
      "inputs": [],
      "name": "rewardRouter",
      "outputs": [
        {
          "internalType": "address",
          "name": "",
          "type": "address"
        }
      ],
      "stateMutability": "view",
      "type": "function"
    },
    {
      "inputs": [],
      "name": "rewardToken",
      "outputs": [
        {
          "internalType": "address",
          "name": "",
          "type": "address"
        }
      ],
      "stateMutability": "view",
      "type": "function"
    },
    {
      "inputs": [
        {
          "internalType": "address",
          "name": "_rewardRouter",
          "type": "address"
        }
      ],
      "name": "setRewardRouter",
      "outputs": [],
      "stateMutability": "nonpayable",
      "type": "function"
    },
    {
      "inputs": [],
      "name": "swapRouter",
      "outputs": [
        {
          "internalType": "address",
          "name": "",
          "type": "address"
        }
      ],
      "stateMutability": "view",
      "type": "function"
    },
    {
      "inputs": [
        {
          "internalType": "address",
          "name": "newOwner",
          "type": "address"
        }
      ],
      "name": "transferOwnership",
      "outputs": [],
      "stateMutability": "nonpayable",
      "type": "function"
    },
    {
      "inputs": [],
      "name": "version",
      "outputs": [
        {
          "internalType": "string",
          "name": "",
          "type": "string"
        }
      ],
      "stateMutability": "view",
      "type": "function"
    }
  ],
  "transactionHash": "0x4bc98493684250555ea56645d4a2e7850cd8d0c0aab7f16cd66c51c05ff72833",
  "args": [
    {
      "alchemist": "0x654e16a0b161b150F5d1C8a5ba6E7A7B7760703A",
      "debtToken": "0x17573150d67d820542EFb24210371545a4868B03",
      "rewardRouter": "0xaBad1aDaB8A51a00665A3B76DA0E32b2D2F1a6db",
      "rewardToken": "0x912CE59144191C1204E64559FE8253a0e49E6548",
      "swapRouter": "0x5C23A419436F6D65c506Bbc329A783ADB3335e3C"
    }
  ],
  "solcInputHash": "367b09ecab2fae85920fef9e33fd89f4",
  "bytecode": "0x60c060405260056080819052640312e302e360dc1b60a090815262000028916001919062000129565b503480156200003657600080fd5b5060405162001e4738038062001e478339810160408190526200005991620001ec565b6200006433620000d9565b8051600280546001600160a01b03199081166001600160a01b0393841617909155602083015160038054831691841691909117905560608301516005805483169184169190911790556040830151600480548316918416919091179055608090920151600680549093169116179055620002cf565b600080546001600160a01b038381166001600160a01b0319831681178455604051919092169283917f8be0079c531659141344cd1fd0a4f28419497f9722a3daafe3b4186f6b6457e09190a35050565b828054620001379062000293565b90600052602060002090601f0160209004810192826200015b5760008555620001a6565b82601f106200017657805160ff1916838001178555620001a6565b82800160010185558215620001a6579182015b82811115620001a657825182559160200191906001019062000189565b50620001b4929150620001b8565b5090565b5b80821115620001b45760008155600101620001b9565b80516001600160a01b0381168114620001e757600080fd5b919050565b600060a08284031215620001ff57600080fd5b60405160a081016001600160401b03811182821017156200023057634e487b7160e01b600052604160045260246000fd5b6040526200023e83620001cf565b81526200024e60208401620001cf565b60208201526200026160408401620001cf565b60408201526200027460608401620001cf565b60608201526200028760808401620001cf565b60808201529392505050565b600181811c90821680620002a857607f821691505b602082108103620002c957634e487b7160e01b600052602260045260246000fd5b50919050565b611b6880620002df6000396000f3fe608060405234801561001057600080fd5b50600436106100b45760003560e01c8063977b91d711610071578063977b91d714610142578063a387b32f14610155578063c31c9c0714610168578063f2fde38b1461017b578063f7c618c11461018e578063f8d89898146101a157600080fd5b80634f4376be146100b957806354fd4d50146100d45780635a3bb989146100e9578063715018a6146101145780638da5cb5b1461011e5780638de925f61461012f575b600080fd5b6100c16101b4565b6040519081526020015b60405180910390f35b6100dc61064b565b6040516100cb91906116f0565b6004546100fc906001600160a01b031681565b6040516001600160a01b0390911681526020016100cb565b61011c6106d9565b005b6000546001600160a01b03166100fc565b6002546100fc906001600160a01b031681565b61011c61015036600461171f565b6106ed565b6100c161016336600461173c565b610717565b6006546100fc906001600160a01b031681565b61011c61018936600461171f565b611362565b6005546100fc906001600160a01b031681565b6003546100fc906001600160a01b031681565b60055460009081906101cf906001600160a01b0316306113db565b6003549091506001600160a01b031673cb8fa9a76b8e203d8c3797bf438d8fb81ea332691901610430576040805160a0810182526005546001600160a01b0316815273af88d065e77c8cc2239327c5edb3a432268e583160208201528082018390526101f46060820152600060808201819052915163b174a0a760e01b815290919073aa29f3218e72974fe7ce81b0826273fea12cbf3c9063b174a0a79061027b908590600401611768565b6080604051808303816000875af115801561029a573d6000803e3d6000fd5b505050506040513d601f19601f820116820180604052508101906102be91906117b0565b50506040805160a08101825273af88d065e77c8cc2239327c5edb3a432268e583181527317fc002b466eec40dae837fc4be5c67993ddbd6f602082015280820184905260646060820152600060808201819052915163b174a0a760e01b81529095509293509173aa29f3218e72974fe7ce81b0826273fea12cbf3c915063b174a0a79061034f908690600401611768565b6080604051808303816000875af115801561036e573d6000803e3d6000fd5b505050506040513d601f19601f8201168201806040525081019061039291906117b0565b50506040516378a051ad60e11b8152600481018390527317fc002b466eec40dae837fc4be5c67993ddbd6f602482015291925073fd599db360cd9713657c95df66650a427d2130109163f140a35a91506044015b602060405180830381865afa158015610403573d6000803e3d6000fd5b505050506040513d601f19601f820116820180604052508101906104279190611802565b94505050505090565b6003546001600160a01b03167317573150d67d820542efb24210371545a4868b021901610608576040805160a0810182526005546001600160a01b031681527382af49447d8a07e3bd95bd0d56f35241523fbab160208201528082018390526101f46060820152600060808201819052915163b174a0a760e01b815290919073aa29f3218e72974fe7ce81b0826273fea12cbf3c9063b174a0a7906104d9908590600401611768565b6080604051808303816000875af11580156104f8573d6000803e3d6000fd5b505050506040513d601f19601f8201168201806040525081019061051c91906117b0565b50506040516378a051ad60e11b8152600481018390527382af49447d8a07e3bd95bd0d56f35241523fbab16024820152919250600091733932192de4f17dfb94be031a8458e215a44bf560915063f140a35a90604401602060405180830381865afa15801561058f573d6000803e3d6000fd5b505050506040513d601f19601f820116820180604052508101906105b39190611802565b6040516378a051ad60e11b81526004810182905273178412e79c25968a32e89b11f63b33f733770c2a602482015290915073fb4fe921f724f3c7b610a826c827f9f6ecef68869063f140a35a906044016103e6565b60405163c50656df60e01b815260206004820152601260248201527124b73b30b634b2103232b13a103a37b5b2b760711b60448201526064015b60405180910390fd5b600180546106589061181b565b80601f01602080910402602001604051908101604052809291908181526020018280546106849061181b565b80156106d15780601f106106a6576101008083540402835291602001916106d1565b820191906000526020600020905b8154815290600101906020018083116106b457829003601f168201915b505050505081565b6106e16114de565b6106eb6000611538565b565b6106f56114de565b600480546001600160a01b0319166001600160a01b0392909216919091179055565b6004546000906001600160a01b0316331461076c5760405162461bcd60e51b815260206004820152601560248201527426bab9ba103132902932bbb0b932102937baba32b960591b6044820152606401610642565b6005546040516370a0823160e01b81523060048201526000916001600160a01b0316906370a0823190602401602060405180830381865afa1580156107b5573d6000803e3d6000fd5b505050506040513d601f19601f820116820180604052508101906107d99190611802565b9050806000036107ed57600091505061135c565b6003546001600160a01b031673cb8fa9a76b8e203d8c3797bf438d8fb81ea3326a03610d8457600554600654610830916001600160a01b03908116911683611588565b604080516001808252818301909252600091816020015b60608152602001906001900390816108475750506005546040519192503091849160009161089b916001600160a01b0316906101f49073af88d065e77c8cc2239327c5edb3a432268e58319060200161186b565b60408051601f19818403018152908290526108be949392916001906020016118a6565b604051602081830303815290604052816000815181106108e0576108e06118e7565b602090810291909101810191909152600654604080516000938101939093528051600181850301815260218401918290526324856bc360e01b9091526001600160a01b03909116916324856bc39161093c9185906025016118fd565b600060405180830381600087803b15801561095657600080fd5b505af115801561096a573d6000803e3d6000fd5b50506006546040516370a0823160e01b81523060048201526109fc935073af88d065e77c8cc2239327c5edb3a432268e583192506001600160a01b039091169082906370a08231906024015b602060405180830381865afa1580156109d3573d6000803e3d6000fd5b505050506040513d601f19601f820116820180604052508101906109f79190611802565b611588565b6040516370a0823160e01b815230600482018190529073af88d065e77c8cc2239327c5edb3a432268e5831906370a0823190602401602060405180830381865afa158015610a4e573d6000803e3d6000fd5b505050506040513d601f19601f82011682018060405250810190610a729190611802565b600073af88d065e77c8cc2239327c5edb3a432268e583160647317fc002b466eec40dae837fc4be5c67993ddbd6f604051602001610ab29392919061186b565b60408051601f1981840301815290829052610ad5949392916001906020016118a6565b60405160208183030381529060405281600081518110610af757610af76118e7565b602090810291909101810191909152600654604080516000938101939093528051600181850301815260218401918290526324856bc360e01b9091526001600160a01b03909116916324856bc391610b539185906025016118fd565b600060405180830381600087803b158015610b6d57600080fd5b505af1158015610b81573d6000803e3d6000fd5b50506040516370a0823160e01b8152306004820152610bd892507317fc002b466eec40dae837fc4be5c67993ddbd6f915073aaa87963efeb6f7e0a2711f397663105acb1805e9082906370a08231906024016109b6565b604080516001808252818301909252600091816020015b6040805160608101825260008082526020808301829052928201528252600019909201910181610bef575050604080516060810182527317fc002b466eec40dae837fc4be5c67993ddbd6f815273cb8fa9a76b8e203d8c3797bf438d8fb81ea3326a60208201526001918101919091528151919250908290600090610c7657610c766118e7565b60209081029190910101526040516370a0823160e01b815230600482015273aaa87963efeb6f7e0a2711f397663105acb1805e9063f41766d8907317fc002b466eec40dae837fc4be5c67993ddbd6f906370a08231906024015b602060405180830381865afa158015610ced573d6000803e3d6000fd5b505050506040513d601f19601f82011682018060405250810190610d119190611802565b878430426040518663ffffffff1660e01b8152600401610d359594939291906119ce565b6000604051808303816000875af1158015610d54573d6000803e3d6000fd5b505050506040513d6000823e601f3d908101601f19168201604052610d7c9190810190611a0a565b505050611264565b6003546001600160a01b03167317573150d67d820542efb24210371545a4868b030361120557600554600654610dc7916001600160a01b03908116911683611588565b604080516001808252818301909252600091816020015b6060815260200190600190039081610dde57505060055460405191925030918491600091610e32916001600160a01b0316906101f4907382af49447d8a07e3bd95bd0d56f35241523fbab19060200161186b565b60408051601f1981840301815290829052610e55949392916001906020016118a6565b60405160208183030381529060405281600081518110610e7757610e776118e7565b602090810291909101810191909152600654604080516000938101939093528051600181850301815260218401918290526324856bc360e01b9091526001600160a01b03909116916324856bc391610ed39185906025016118fd565b600060405180830381600087803b158015610eed57600080fd5b505af1158015610f01573d6000803e3d6000fd5b50506040516370a0823160e01b8152306004820152610f5892507382af49447d8a07e3bd95bd0d56f35241523fbab1915073aaa87963efeb6f7e0a2711f397663105acb1805e9082906370a08231906024016109b6565b604080516001808252818301909252600091816020015b6040805160608101825260008082526020808301829052928201528252600019909201910181610f6f575050604080516060810182527382af49447d8a07e3bd95bd0d56f35241523fbab1815273178412e79c25968a32e89b11f63b33f733770c2a60208201526001918101919091528151919250908290600090610ff657610ff66118e7565b60209081029190910101526040516370a0823160e01b815230600482015273aaa87963efeb6f7e0a2711f397663105acb1805e9063f41766d8907382af49447d8a07e3bd95bd0d56f35241523fbab1906370a0823190602401602060405180830381865afa15801561106c573d6000803e3d6000fd5b505050506040513d601f19601f820116820180604052508101906110909190611802565b60008430426040518663ffffffff1660e01b81526004016110b59594939291906119ce565b6000604051808303816000875af11580156110d4573d6000803e3d6000fd5b505050506040513d6000823e601f3d908101601f191682016040526110fc9190810190611a0a565b506040516370a0823160e01b81523060048201526111509073178412e79c25968a32e89b11f63b33f733770c2a9073aaa87963efeb6f7e0a2711f397663105acb1805e9082906370a08231906024016109b6565b6040805160608101825273178412e79c25968a32e89b11f63b33f733770c2a81527317573150d67d820542efb24210371545a4868b036020820152600191810191909152815182906000906111a7576111a76118e7565b60209081029190910101526040516370a0823160e01b815230600482015273aaa87963efeb6f7e0a2711f397663105acb1805e9063f41766d89073178412e79c25968a32e89b11f63b33f733770c2a906370a0823190602401610cd0565b60405163c50656df60e01b815260206004820152602d60248201527f52657761726420636f6c6c6563746f72206064656274546f6b656e602069732060448201526c1b9bdd081cdd5c1c1bdc9d1959609a1b6064820152608401610642565b6003546040516370a0823160e01b81523060048201526000916001600160a01b0316906370a0823190602401602060405180830381865afa1580156112ad573d6000803e3d6000fd5b505050506040513d601f19601f820116820180604052508101906112d19190611802565b6003546002549192506112f1916001600160a01b03918216911683611588565b60025460405163e69d849d60e01b81526001600160a01b038781166004830152602482018490529091169063e69d849d90604401600060405180830381600087803b15801561133f57600080fd5b505af1158015611353573d6000803e3d6000fd5b50939450505050505b92915050565b61136a6114de565b6001600160a01b0381166113cf5760405162461bcd60e51b815260206004820152602660248201527f4f776e61626c653a206e6577206f776e657220697320746865207a65726f206160448201526564647265737360d01b6064820152608401610642565b6113d881611538565b50565b604080516001600160a01b0383811660248084019190915283518084039091018152604490920183526020820180516001600160e01b03166370a0823160e01b179052915160009283928392918716916114359190611ac8565b600060405180830381855afa9150503d8060008114611470576040519150601f19603f3d011682016040523d82523d6000602084013e611475565b606091505b5091509150846001600160a01b03163b60001480611491575081155b8061149d575060208151105b156114c15784828260405163e7e40b5b60e01b815260040161064293929190611ae4565b808060200190518101906114d59190611802565b95945050505050565b6000546001600160a01b031633146106eb5760405162461bcd60e51b815260206004820181905260248201527f4f776e61626c653a2063616c6c6572206973206e6f7420746865206f776e65726044820152606401610642565b600080546001600160a01b038381166001600160a01b0319831681178455604051919092169283917f8be0079c531659141344cd1fd0a4f28419497f9722a3daafe3b4186f6b6457e09190a35050565b604080516001600160a01b038481166024830152604480830185905283518084039091018152606490920183526020820180516001600160e01b031663095ea7b360e01b17905291516000928392908716916115e49190611ac8565b6000604051808303816000865af19150503d8060008114611621576040519150601f19603f3d011682016040523d82523d6000602084013e611626565b606091505b5091509150846001600160a01b03163b60001480611642575081155b8061166957508051158015906116695750808060200190518101906116679190611b10565b155b1561168d5784828260405163e7e40b5b60e01b815260040161064293929190611ae4565b5050505050565b60005b838110156116af578181015183820152602001611697565b838111156116be576000848401525b50505050565b600081518084526116dc816020860160208601611694565b601f01601f19169290920160200192915050565b60208152600061170360208301846116c4565b9392505050565b6001600160a01b03811681146113d857600080fd5b60006020828403121561173157600080fd5b81356117038161170a565b6000806040838503121561174f57600080fd5b823561175a8161170a565b946020939093013593505050565b81516001600160a01b0390811682526020808401518216908301526040808401519083015260608084015162ffffff1690830152608092830151169181019190915260a00190565b600080600080608085870312156117c657600080fd5b8451935060208501516117d88161170a565b604086015190935063ffffffff811681146117f257600080fd5b6060959095015193969295505050565b60006020828403121561181457600080fd5b5051919050565b600181811c9082168061182f57607f821691505b60208210810361184f57634e487b7160e01b600052602260045260246000fd5b50919050565b634e487b7160e01b600052604160045260246000fd5b606093841b6bffffffffffffffffffffffff19908116825260e89390931b6001600160e81b0319166014820152921b166017820152602b0190565b60018060a01b038616815284602082015283604082015260a0606082015260006118d360a08301856116c4565b905082151560808301529695505050505050565b634e487b7160e01b600052603260045260246000fd5b60408152600061191060408301856116c4565b6020838203818501528185518084528284019150828160051b85010183880160005b8381101561196057601f1987840301855261194e8383516116c4565b94860194925090850190600101611932565b50909998505050505050505050565b600081518084526020808501945080840160005b838110156119c357815180516001600160a01b03908116895284820151168489015260409081015115159088015260609096019590820190600101611983565b509495945050505050565b85815284602082015260a0604082015260006119ed60a083018661196f565b6001600160a01b0394909416606083015250608001529392505050565b60006020808385031215611a1d57600080fd5b825167ffffffffffffffff80821115611a3557600080fd5b818501915085601f830112611a4957600080fd5b815181811115611a5b57611a5b611855565b8060051b604051601f19603f83011681018181108582111715611a8057611a80611855565b604052918252848201925083810185019188831115611a9e57600080fd5b938501935b82851015611abc57845184529385019392850192611aa3565b98975050505050505050565b60008251611ada818460208701611694565b9190910192915050565b6001600160a01b038416815282151560208201526060604082018190526000906114d5908301846116c4565b600060208284031215611b2257600080fd5b8151801515811461170357600080fdfea2646970667358221220570958fba32d6f8a2092620996339ee7e18e6ddcdc34c59be8e34f57626208f464736f6c634300080d0033",
  "devdoc": {
    "author": "Alchemix Finance",
    "errors": {
      "ERC20CallFailed(address,bool,bytes)": [
        {
          "params": {
            "data": "The resulting data from the call. This is error data when the call was not a success. Otherwise,                this is malformed data when the call was a success.",
            "success": "If the call to the token was a success.",
            "target": "The target address."
          }
        }
      ],
      "IllegalState(string)": [
        {
          "params": {
            "message": "The error message."
          }
        }
      ]
    },
    "kind": "dev",
    "methods": {
      "claimAndDonateRewards(address,uint256)": {
        "params": {
          "minimumAmountOut": "The minimum returns to accept.",
          "token": "The yield token to claim rewards for."
        },
        "returns": {
          "_0": "             The amount of reward tokens claimed."
        }
      },
      "owner()": {
        "details": "Returns the address of the current owner."
      },
      "renounceOwnership()": {
        "details": "Leaves the contract without owner. It will not be possible to call `onlyOwner` functions anymore. Can only be called by the current owner. NOTE: Renouncing ownership will leave the contract without an owner, thereby removing any functionality that is only available to the owner."
      },
      "transferOwnership(address)": {
        "details": "Transfers ownership of the contract to a new account (`newOwner`). Can only be called by the current owner."
      }
    },
    "stateVariables": {
      "debtToken": {
        "return": "The debt token",
        "returns": {
          "_0": "The debt token"
        }
      },
      "rewardToken": {
        "return": "The reward token.",
        "returns": {
          "_0": "The reward token."
        }
      },
      "swapRouter": {
        "return": "The swap router address.",
        "returns": {
          "_0": "The swap router address."
        }
      },
      "version": {
        "return": "The version.",
        "returns": {
          "_0": "The version."
        }
      }
    },
    "title": "ArbitrumRewardCollector",
    "version": 1
  },
  "userdoc": {
    "errors": {
      "ERC20CallFailed(address,bool,bytes)": [
        {
          "notice": "An error used to indicate that a call to an ERC20 contract failed."
        }
      ],
      "IllegalState(string)": [
        {
          "notice": "An error used to indicate that a function has encountered an unrecoverable state."
        }
      ]
    },
    "kind": "user",
    "methods": {
      "claimAndDonateRewards(address,uint256)": {
        "notice": "Claims rewards tokens, swaps for debt tokens. "
      },
      "debtToken()": {
        "notice": "Gets the current debt token."
      },
      "getExpectedExchange()": {
        "notice": "Gets expected exchange for OP to debt token."
      },
      "rewardToken()": {
        "notice": "Gets the current reward token."
      },
      "swapRouter()": {
        "notice": "Gets the current swap router."
      },
      "version()": {
        "notice": "Gets the current version."
      }
    },
    "version": 1
  },
  "storageLayout": {
    "storage": [
      {
        "astId": 27636,
        "contract": "submodules/v2-foundry/src/utils/collectors/ArbitrumRewardCollector.sol:ArbitrumRewardCollector",
        "label": "_owner",
        "offset": 0,
        "slot": "0",
        "type": "t_address"
      },
      {
        "astId": 92786,
        "contract": "submodules/v2-foundry/src/utils/collectors/ArbitrumRewardCollector.sol:ArbitrumRewardCollector",
        "label": "version",
        "offset": 0,
        "slot": "1",
        "type": "t_string_storage"
      },
      {
        "astId": 92788,
        "contract": "submodules/v2-foundry/src/utils/collectors/ArbitrumRewardCollector.sol:ArbitrumRewardCollector",
        "label": "alchemist",
        "offset": 0,
        "slot": "2",
        "type": "t_address"
      },
      {
        "astId": 92790,
        "contract": "submodules/v2-foundry/src/utils/collectors/ArbitrumRewardCollector.sol:ArbitrumRewardCollector",
        "label": "debtToken",
        "offset": 0,
        "slot": "3",
        "type": "t_address"
      },
      {
        "astId": 92792,
        "contract": "submodules/v2-foundry/src/utils/collectors/ArbitrumRewardCollector.sol:ArbitrumRewardCollector",
        "label": "rewardRouter",
        "offset": 0,
        "slot": "4",
        "type": "t_address"
      },
      {
        "astId": 92795,
        "contract": "submodules/v2-foundry/src/utils/collectors/ArbitrumRewardCollector.sol:ArbitrumRewardCollector",
        "label": "rewardToken",
        "offset": 0,
        "slot": "5",
        "type": "t_address"
      },
      {
        "astId": 92798,
        "contract": "submodules/v2-foundry/src/utils/collectors/ArbitrumRewardCollector.sol:ArbitrumRewardCollector",
        "label": "swapRouter",
        "offset": 0,
        "slot": "6",
        "type": "t_address"
      }
    ],
    "types": {
      "t_address": {
        "encoding": "inplace",
        "label": "address",
        "numberOfBytes": "20"
      },
      "t_string_storage": {
        "encoding": "bytes",
        "label": "string",
        "numberOfBytes": "32"
      }
    }
  }
}