{
  "address": "0x87C4A26c6A00C91ACf2344a43074563085f9bbE5",
  "abi": [
    {
      "inputs": [
        {
          "internalType": "address",
          "name": "_glpRouter",
          "type": "address"
        },
        {
          "internalType": "address",
          "name": "_underlying",
          "type": "address"
        },
        {
          "internalType": "address",
          "name": "_vault",
          "type": "address"
        }
      ],
      "stateMutability": "nonpayable",
      "type": "constructor"
    },
    {
      "inputs": [
        {
          "internalType": "address",
          "name": "target",
          "type": "address"
        },
        {
          "internalType": "bool",
          "name": "success",
          "type": "bool"
        },
        {
          "internalType": "bytes",
          "name": "data",
          "type": "bytes"
        }
      ],
      "name": "ERC20CallFailed",
      "type": "error"
    },
    {
      "inputs": [],
      "name": "jonesGLPVaultRouter",
      "outputs": [
        {
          "internalType": "address",
          "name": "",
          "type": "address"
        }
      ],
      "stateMutability": "view",
      "type": "function"
    },
    {
      "inputs": [],
      "name": "price",
      "outputs": [
        {
          "internalType": "uint256",
          "name": "",
          "type": "uint256"
        }
      ],
      "stateMutability": "view",
      "type": "function"
    },
    {
      "inputs": [],
      "name": "token",
      "outputs": [
        {
          "internalType": "address",
          "name": "",
          "type": "address"
        }
      ],
      "stateMutability": "view",
      "type": "function"
    },
    {
      "inputs": [],
      "name": "underlyingToken",
      "outputs": [
        {
          "internalType": "address",
          "name": "",
          "type": "address"
        }
      ],
      "stateMutability": "view",
      "type": "function"
    },
    {
      "inputs": [
        {
          "internalType": "uint256",
          "name": "amount",
          "type": "uint256"
        },
        {
          "internalType": "address",
          "name": "recipient",
          "type": "address"
        }
      ],
      "name": "unwrap",
      "outputs": [
        {
          "internalType": "uint256",
          "name": "",
          "type": "uint256"
        }
      ],
      "stateMutability": "nonpayable",
      "type": "function"
    },
    {
      "inputs": [],
      "name": "version",
      "outputs": [
        {
          "internalType": "string",
          "name": "",
          "type": "string"
        }
      ],
      "stateMutability": "view",
      "type": "function"
    },
    {
      "inputs": [
        {
          "internalType": "uint256",
          "name": "amount",
          "type": "uint256"
        },
        {
          "internalType": "address",
          "name": "recipient",
          "type": "address"
        }
      ],
      "name": "wrap",
      "outputs": [
        {
          "internalType": "uint256",
          "name": "",
          "type": "uint256"
        }
      ],
      "stateMutability": "nonpayable",
      "type": "function"
    }
  ],
  "transactionHash": "0x6b375578ad2b0d5bb492163a4440c9a6c0b1a1eafc906f1630338ba91344f2a3",
  "args": [
    "0x9c895CcDd1da452eb390803d48155e38f9fC2e4d",
    "0xaf88d065e77c8cC2239327C5EDb3A432268e5831",
    "0xB0BDE111812EAC913b392D80D51966eC977bE3A2"
  ],
  "solcInputHash": "2bd1b0c2eb8e599b8c7559c6909c332d",
  "bytecode": "0x60c060405234801561001057600080fd5b5060405161090838038061090883398101604081905261002f91610076565b600080546001600160a01b0319166001600160a01b0394851617905590821660a052166080526100b9565b80516001600160a01b038116811461007157600080fd5b919050565b60008060006060848603121561008b57600080fd5b6100948461005a565b92506100a26020850161005a565b91506100b06040850161005a565b90509250925092565b60805160a0516108086101006000396000818160ad0152818161017401526101a401526000818161014b0152818161025a0152818161028a01526103c101526108086000f3fe608060405234801561001057600080fd5b506004361061007d5760003560e01c806354fd4d501161005b57806354fd4d50146100fa5780637647691d1461012b578063a035b1fe1461013e578063fc0c546a1461014657600080fd5b806313bac820146100825780632495a599146100a8578063290aa666146100e7575b600080fd5b61009561009036600461065a565b61016d565b6040519081526020015b60405180910390f35b6100cf7f000000000000000000000000000000000000000000000000000000000000000081565b6040516001600160a01b03909116815260200161009f565b6000546100cf906001600160a01b031681565b61011e604051806040016040528060058152602001640312e302e360dc1b81525081565b60405161009f91906106f2565b61009561013936600461065a565b610253565b6100956103a1565b6100cf7f000000000000000000000000000000000000000000000000000000000000000081565b600061019b7f0000000000000000000000000000000000000000000000000000000000000000333086610439565b6000546101d3907f0000000000000000000000000000000000000000000000000000000000000000906001600160a01b03168561054e565b60008054604051636e553f6560e01b8152600481018690526001600160a01b03858116602483015290911690636e553f65906044016020604051808303816000875af1158015610227573d6000803e3d6000fd5b505050506040513d601f19601f8201168201806040525081019061024b919061070c565b949350505050565b60006102817f0000000000000000000000000000000000000000000000000000000000000000333086610439565b6000546102b9907f0000000000000000000000000000000000000000000000000000000000000000906001600160a01b03168561054e565b60008054604051638bc5dc8760e01b8152600481018690526001600160a01b03858116602483015260448201849052608060648301526084820184905283921690638bc5dc879060a40160408051808303816000875af1158015610321573d6000803e3d6000fd5b505050506040513d601f19601f82011682018060405250810190610345919061073a565b909250905060018215151461024b5760405162461bcd60e51b815260206004820152601d60248201527f57697468726177616c207175657565206e6f742062797061737365642100000060448201526064015b60405180910390fd5b6040516303d1689d60e11b8152670de0b6b3a764000060048201526000907f00000000000000000000000000000000000000000000000000000000000000006001600160a01b0316906307a2d13a90602401602060405180830381865afa158015610410573d6000803e3d6000fd5b505050506040513d601f19601f82011682018060405250810190610434919061070c565b905090565b604080516001600160a01b0385811660248301528481166044830152606480830185905283518084039091018152608490920183526020820180516001600160e01b03166323b872dd60e01b179052915160009283929088169161049d9190610766565b6000604051808303816000865af19150503d80600081146104da576040519150601f19603f3d011682016040523d82523d6000602084013e6104df565b606091505b5091509150856001600160a01b03163b600014806104fb575081155b8061052257508051158015906105225750808060200190518101906105209190610782565b155b156105465785828260405163e7e40b5b60e01b81526004016103989392919061079d565b505050505050565b604080516001600160a01b038481166024830152604480830185905283518084039091018152606490920183526020820180516001600160e01b031663095ea7b360e01b17905291516000928392908716916105aa9190610766565b6000604051808303816000865af19150503d80600081146105e7576040519150601f19603f3d011682016040523d82523d6000602084013e6105ec565b606091505b5091509150846001600160a01b03163b60001480610608575081155b8061062f575080511580159061062f57508080602001905181019061062d9190610782565b155b156106535784828260405163e7e40b5b60e01b81526004016103989392919061079d565b5050505050565b6000806040838503121561066d57600080fd5b8235915060208301356001600160a01b038116811461068b57600080fd5b809150509250929050565b60005b838110156106b1578181015183820152602001610699565b838111156106c0576000848401525b50505050565b600081518084526106de816020860160208601610696565b601f01601f19169290920160200192915050565b60208152600061070560208301846106c6565b9392505050565b60006020828403121561071e57600080fd5b5051919050565b8051801515811461073557600080fd5b919050565b6000806040838503121561074d57600080fd5b61075683610725565b9150602083015190509250929050565b60008251610778818460208701610696565b9190910192915050565b60006020828403121561079457600080fd5b61070582610725565b6001600160a01b038416815282151560208201526060604082018190526000906107c9908301846106c6565b9594505050505056fea2646970667358221220a65dada4ef65a1e2eda2965f6dadb2f3be3c009b7b7e04fcc34b9f45f99910c564736f6c634300080d0033",
  "devdoc": {
    "author": "Alchemix Finance",
    "errors": {
      "ERC20CallFailed(address,bool,bytes)": [
        {
          "params": {
            "data": "The resulting data from the call. This is error data when the call was not a success. Otherwise,                this is malformed data when the call was a success.",
            "success": "If the call to the token was a success.",
            "target": "The target address."
          }
        }
      ]
    },
    "kind": "dev",
    "methods": {
      "price()": {
        "returns": {
          "_0": "The price."
        }
      },
      "unwrap(uint256,address)": {
        "params": {
          "amount": "The amount of yield-tokens to redeem.",
          "recipient": "The recipient of the resulting underlying-tokens."
        },
        "returns": {
          "_0": "The amount of underlying tokens unwrapped to `recipient`."
        }
      },
      "wrap(uint256,address)": {
        "params": {
          "amount": "The amount of the underlying token to wrap.",
          "recipient": "The address which will receive the yield tokens."
        },
        "returns": {
          "_0": "The amount of yield tokens minted to `recipient`."
        }
      }
    },
    "stateVariables": {
      "token": {
        "return": "The address of the yield token.",
        "returns": {
          "_0": "The address of the yield token."
        }
      },
      "underlyingToken": {
        "return": "The address of the underlying token.",
        "returns": {
          "_0": "The address of the underlying token."
        }
      },
      "version": {
        "return": "The version.",
        "returns": {
          "_0": "The version."
        }
      }
    },
    "title": "JonesUSDCAdapter",
    "version": 1
  },
  "userdoc": {
    "errors": {
      "ERC20CallFailed(address,bool,bytes)": [
        {
          "notice": "An error used to indicate that a call to an ERC20 contract failed."
        }
      ]
    },
    "kind": "user",
    "methods": {
      "price()": {
        "notice": "Gets the number of underlying tokens that a single whole yield token is redeemable         for."
      },
      "token()": {
        "notice": "Gets the address of the yield token that this adapter supports."
      },
      "underlyingToken()": {
        "notice": "Gets the address of the underlying token that the yield token wraps."
      },
      "unwrap(uint256,address)": {
        "notice": "Unwraps `amount` yield tokens into the underlying token."
      },
      "version()": {
        "notice": "Gets the current version."
      },
      "wrap(uint256,address)": {
        "notice": "Wraps `amount` underlying tokens into the yield token."
      }
    },
    "version": 1
  },
  "storageLayout": {
    "storage": [
      {
        "astId": 54259,
        "contract": "submodules/v2-foundry/src/adapters/jonesDao/JonesUSDCAdapter.sol:JonesUSDCAdapter",
        "label": "jonesGLPVaultRouter",
        "offset": 0,
        "slot": "0",
        "type": "t_address"
      }
    ],
    "types": {
      "t_address": {
        "encoding": "inplace",
        "label": "address",
        "numberOfBytes": "20"
      }
    }
  }
}